:10013900110869206C6F766520796F752064656197
:0301490072210020
:10012400D3EF9400EE9400400B7D13DDFEEF1F70BF
:04013400EF1E80EC4E
:0101380022A4
:0900E6007F647E001201247F38C2
:1000EF00C2B7C2B5C2B68F907F0A7E00120124D26A
:0B00FF00B77F147E00120124C2B7225C
:10010A00C2B7D2B5C2B68F90D2B77F0A7E001201AB
:0A011A0024C2B77F147E0002012406
:1000C0007F2C7E011200EA1200E61200E67F381251
:1000D00000EF7F081200EF7F011200EF7F06120091
:0600E000EF7F0C0200EFAF
:10008F001200C07F801200EFE4F519F51A740825ED
:10009F001AF8E6FF12010A7F047E00120124051AE6
:1000AF00E51A70020519C39410E519940040DE801B
:0100BF00D26E
:03000000020003F8
:0C000300787FE4F6D8FD75811A02004AEF
:10000F0002008FE493A3F8E493A34003F68001F278
:10001F0008DFF48029E493A3F85407240CC8C333F2
:10002F00C4540F4420C8834004F456800146F6DFC1
:10003F00E4800B0102040810204080900139E47E17
:10004F00019360BCA3FF543F30E509541FFEE493B6
:10005F00A360010ECF54C025E060A840B8E493A37D
:10006F00FAE493A3F8E493A3C8C582C8CAC583CAA8
:10007F00F0A3C8C582C8CAC583CADFE9DEE780BE60
:01014C0000B2
:00000001FF
