:1000D200C0F9A4B0999282F8809040792430191224
:1000E200027800100001010203030404050606065B
:0500F2000708080909E0
:0701370093F5807FC87E00F4
:0B013E00EF1FAC0670011E4C70F62293
:1000AA00D2917F087E0012013EC2917F507E0012DB
:1000BA00013ED2917F147E0012013EA291E433F5F3
:0800CA000B7F147E0002013ED1
:10011900E4FBC291EDC313FDD291309103430580F5
:0D0129007F047E0012013E0BBB08E7AF050E
:0101360022A6
:0200F700AD0753
:1000F900E4FBC291ED1392917F057E0012013ED27D
:1001090091EDC313FD0BBB08E97F047E0002013E9C
:100003001200AA7FCC1200F77F441200F77F327EE2
:100013000012013E1200AA7FCC1200F77FBE12002D
:10002300F7120119AA07120119EFD3940F4014EA2A
:10003300F404FA7006EFF404FF80036307FF750806
:10004300FF8003E4F508EA540FF50AEAC4540FFAF3
:08005300EFC454F0FFEA42077C
:01005B002282
:10005C0075A07FE50975F064849000D212013775A4
:10006C00A0BFE50975F06484E5F075F00A8412010F
:10007C003775A0DFE50975F06484E5F075F00A8446
:10008C00E5F09000DC12013775A0EFE50A9000E670
:0E009C00939000D293F5807FC87E0002013E53
:080155001200038F0902005C97
:03000000020149B1
:0C014900787FE4F6D8FD75810B020155AB
:00000001FF
