:1002DE000D0A0063757272656E742068756D6964BF
:1002EE0069747920206973202020203A20006375DC
:1002FE007272656E742074656D706572617475725C
:09030E006520697320203A2000EB
:10034900D3EF9400EE940040147D7C7C00ED1D7089
:0D035900011CED4C70F7EF1F70E61E80E3F5
:010366002274
:10025200E4759850F58775C830F5C9751BE2751AB3
:1002620004F519F518AF1BAE1AAD19AC187B20FABC
:10027200F9F81200D08F1B8E1A8D198C18E4AC0677
:10028200AD07C39DFDE49CF5CBAF05EFF5CAC2985F
:08029200D29CD2ACD2CAD2AF5B
:01029A002241
:06037E0014F9120026FF35
:080384008F993099FDC2992206
:030023000203A530
:0803A500309805C298859917F4
:0103AD00321D
:100003008B1D8A1E891FAB1DAA1EA91F1200266005
:0F0013000D051FE51F7002051E12037E80E822F7
:0A0162008B188A19891AAB05AA044C
:10016C007C007D0AAF03AE0212003FED2430F51D7A
:10017C007C007D0AAF03AE0212003F7C007D0A12A8
:10018C00003FED2430F51CAE02AF037C007D641201
:10019C00003F7C007D0A12003FED2430F51BAB18AC
:1001AC00AA19A91A120026600D051AE51A70020583
:1001BC001912037E80E87F20120384E4FE741B2E48
:1001CC00F8E6FF1203840EBE03F37BFF7A0279DE9E
:0301DC000200031B
:10036700D3EF9400EE9400400DE4FD0DBD1BFCEFB0
:060377001F70ED1E80EA7C
:01037D00225D
:0C038C0015181518151815181518151857
:010398002242
:10029B00E4FF750C02209007AE0C050CEE70F61205
:1002AB00038C12038C12038CE4F510309003751041
:1002BB0001750C02309007AE0C050CEE70F6E50CD8
:1002CB006401600EE51625E0F516E51042160FBF2A
:0202DB0008C059
:0102DD0022FE
:1001DF00C2907FB47E00120367D29012038C120379
:1001EF008C12038C12038CD290209056750C022027
:1001FF009007AF0C050CEF70F6750C02309007AF3F
:10020F000C050CEF70F612029B85161312029B85DC
:10021F00161412029B85160A12029B85160B1202E8
:10022F009B85160FD290E50A250B25132514F51083
:10023F00B50F0F851311851412850A08850B0985D3
:03024F000F0D226E
:100317001202521201DF7FE87E031203497BFF7A44
:100327000279E1E511FD7C001201627FE87E03128C
:1003370003497BFF7A0279FCE508FD7C0012016224
:0203470080D163
:030000000203995F
:0C039900787FE4F6D8FD75811F02031781
:10002600BB010689828A83E0225002E722BBFE02D8
:09003600E32289828A83E493220B
:10003F00BC000BBE0029EF8DF084FFADF022E4CCA5
:10004F00F875F008EF2FFFEE33FEEC33FCEE9DEC6E
:10005F00984005FCEE9DFE0FD5F0E9E4CEFD22EDB4
:10006F00F8F5F0EE8420D21CFEADF075F008EF2FFE
:10007F00FFED33FD4007985006D5F0F222C398FDEF
:05008F000FD5F0EA228C
:1000940075F008758200EF2FFFEE33FECD33CDCC23
:1000A40033CCC58233C5829BED9AEC99E5829840A6
:1000B4000CF582EE9BFEED9AFDEC99FC0FD5F0D683
:1000C400E4CEFBE4CDFAE4CCF9A88222B800C1B9AD
:1000D4000059BA002DEC8BF084CFCECDFCE5F0CBEB
:1000E400F97818EF2FFFEE33FEED33FDEC33FCEB24
:1000F40033FB10D703994004EB99FB0FD8E5E4F9DF
:10010400FA227818EF2FFFEE33FEED33FDEC33FCCB
:10011400C933C910D7059BE99A4007EC9BFCE99ABF
:10012400F90FD8E0E4C9FAE4CCFB2275F010EF2F04
:10013400FFEE33FEED33FDCC33CCC833C810D70704
:100144009BEC9AE899400AED9BFDEC9AFCE899F83F
:0E0154000FD5F0DAE4CDFBE4CCFAE4C8F922D2
:00000001FF
