:020000040800F2
:100000007002002095010008990100089B0100087A
:100010009D0100089F010008A101000800000000E8
:10002000000000000000000000000000A301000824
:10003000A501000800000000A7010008A9010008B0
:10004000AB090008AB010008AB010008AB010008D8
:10005000AB010008AB0100089D070008AB010008D8
:10006000AB010008AB010008AB010008AB010008C0
:10007000AB010008AB010008AB010008AB010008B0
:10008000AB010008AB010008AB010008AB010008A0
:10009000AB010008AB010008AB010008AB01000890
:1000A000AB010008AB010008AB010008AB01000880
:1000B000AB010008050A0008AB010008AB0100080D
:1000C000AB010008AB010008AB010008AB01000860
:1000D000AB010008AB010008AB010008AB01000850
:1000E000DB070008AB010008AB01000800F002F8D4
:1000F00000F041F80AA090E8000C82448344AAF181
:100100000107DA4501D100F036F8AFF2090EBAE87E
:100110000F0013F0010F18BFFB1A43F0010318473B
:10012000403A0000603A0000103A24BF78C878C115
:10013000FAD8520724BF30C830C144BF04680C60ED
:10014000704700000023002400250026103A28BF35
:1001500078C1FBD8520728BF30C148BF0B60704739
:10016000782902F0BF81002070471FB5AFF30080EF
:100170001FBD10B510BD02F057FA1146FFF7F5FF8D
:1001800000F022F802F075FAFFF7F3FF00F050FAE2
:1001900030BF000008480047FEE7FEE7FEE7FEE745
:1001A000FEE7FEE7FEE7FEE7FEE7FEE70348044959
:1001B000024A044B70470000ED0000087000002068
:1001C000700200207000002010B50024092000F00B
:1001D000D5F9482000F06CF84FF41651482000F093
:1001E00035FA00F09BFA00F0C2FD4FF478402E493A
:1001F000088057E00C2C41D2DFE804F0060B0F1307
:10020000181D22272C31363B4FF6FF7000F092FD6F
:1002100034E0002000F08EFD30E01F2000F08AFD69
:100220002CE04FF4784000F085FD27E04FF61F00EA
:1002300000F080FD22E04FF4FC6000F07BFD1DE04B
:1002400047F6FF7000F076FD18E04FF6E07000F022
:1002500071FD13E04FF6074000F06CFD0EE048F230
:10026000304000F067FD09E04CF2186000F062FDDC
:1002700004E04BF6404000F05DFD00BF00BF02F01F
:10028000BFF8601CC4B20C2C00D1002407480068E1
:1002900008B9012000E00020044908604FF47A709A
:1002A00000F01DF8A6E700000A000020A00121428E
:1002B0004FF0E021096921F004014FF0E0221161C3
:1002C0000146C21700EB5272D2101F4B1A7019462A
:1002D00009784FF47A7251439A1C118070471A4A78
:1002E000921C128842434FF0E0235A6100229A6127
:1002F00001221A6100BF4FF0E022116911F0010FD5
:1003000002D011F4803FF6D000224FF0E0231A61B2
:100310009A6170470C4A127842434FF0E0235A61C9
:1003200000229A6101221A6100BF4FF0E022116998
:1003300011F0010F02D011F4803FF6D000224FF0EF
:10034000E0231A619A61704700000020AC4A0A401D
:100350000243AC4B1A607047072323EA00021202E3
:10036000A84B1B1D19684FF6FF031940A64B1943F4
:1003700011434FF0E023C3F80C1D70472DE9F047FF
:1003800004460D4616461F463046F11706EB91719E
:100390004FEAA109F11706EB91718910A6EB8101D3
:1003A00001F0FF0A042101EBCA0000F0FF0A384601
:1003B000FFF7D2FFC7F1040004FA00F80F2038411C
:1003C000284040EA080808F00F08202E09DA8F4874
:1003D00000680121B14008434FF0E021C1F800015D
:1003E0000BE08A48001D0168A6F120020120904020
:1003F00001434FF0E020C0F80411854850F829006F
:1004000008FA0AF10143824840F82910BDE8F08754
:1004100070B50D46CE1701EB9676B310CE1701EBF3
:100420009676B610A1EB8606B606340E794DAD6908
:1004300045F00105774EB5614FEAB63555F82360B2
:100440000F25A540AE43744D45F8236055F8235061
:1004500000FA04F63543704E46F823506F4D2E686F
:1004600001258D402E436C4D083DC5F8006412F007
:10047000010F09D0694D0C352E6801258D402E43A2
:10048000654D083DC5F80C6412F0020F09D0634DAC
:1004900008352E6801258D402E435F4D083DC5F877
:1004A000086470BD00B500205A490861C860142076
:1004B000486100208861C8610846006840F001007A
:1004C0000860084640685649084052494860084656
:1004D0000068544908404F4908600846006820F405
:1004E000802008600846406820F4FE004860002034
:1004F000886000214FF00060FFF728FF00BD10B5B5
:1005000040480830006840F004004FF0E021C1F896
:10051000100D4048C06940F080503E49C8614248D3
:10052000406840F48070404948600846006840F0E8
:10053000040008600846006840F002000860FFF709
:1005400027FE10BD3048001D2E49091D0860704768
:100550000146084649062F4A926942F001022D4B96
:100560009A612D4A083A526822F0E0622A4B083B11
:100570005A601A4652680A435A60704730B50446BA
:100580000025FFF78FFF2348006840F480302149A1
:10059000086000BF1F480068400CFBD04FF480602B
:1005A0001C494860A01EC4B20846406840EA844026
:1005B00048600846406840F4803048601B48006846
:1005C00040F03200194908601248006840F080701D
:1005D0001049086000BF0F480068400EFBD00D486E
:1005E000406840F002000B49486005E00948406857
:1005F000C0F3870505F00305022DF7D130BD0000DB
:1006000080FFFF1F08ED00E00000FA0500E100E0B8
:1006100000E400E000100240080001400004014036
:100620000000FFF8FFFFF6FE0070004000200240CF
:10063000014600BF704700BF324A128812F0400FD7
:10064000FAD0C2B22F4B1B1D1A8070472DE9F05F04
:1006500004460D46280102F0F8F981462A4904FBB8
:1006600001F002F0F2F98246494602F0B7F8064678
:10067000304602F0A5F987B2384602F0E6F9834623
:10068000314602F090FA82464FF0834102F0E2F9DF
:10069000814602F095F980463F0107EB080087B2DA
:1006A0001A48806940F0040018498861084680694A
:1006B00040F4804088611648006820F47F60154946
:1006C000C1F804080846D0F8040840F40B60C1F8EB
:1006D00004080E48C06840F480400C49C8600846D1
:1006E000C06820F48040C8600B48A0F8087805482E
:1006F0000C30008842F20C01084302490C3108809A
:10070000BDE8F09F0038014040420F000010024059
:100710000408014000000140003001401B4880698E
:1007200040F00400194988610846806940F02000C3
:1007300088611748006820F00F001649C1F80408C6
:100740000846D0F8040840F00300C1F80408084641
:10075000D0F80C0840F48070C1F80C080E48D0F8AE
:10076000000420F470600C49C1F800040846D0F879
:10077000000440F44070C1F800040846D0F80C04AE
:1007800040F00400C1F80C04704700000010024063
:1007900004080140000001400010014010B50A208B
:1007A000FFF79DFD4A480068012812D14848A03053
:1007B000006808B9012000E000204549A031086028
:1007C0004448D0F8880108B9012000E000204249DF
:1007D000086001204149086010BD10B50A20FFF7EC
:1007E0007EFD3B483430006850B93948A03000687D
:1007F00008B9012000E000203549A03108600BE075
:1008000033483C30006838B93348006808B90120E3
:1008100000E00020304908604FF400502F49086084
:1008200080002F49C1F8140410BD10B52D4880690F
:1008300040F004002B4988610220FFF789FE2A4816
:10084000006820F00F002649C1F800080846D0F8DB
:10085000000840F00800C1F800082348001D0068A7
:10086000224908401E49C1F804081F48001D0068BD
:100870001F4908431A49C1F804080846D0F80C0873
:1008800040F40050C1F80C080846D0F80C0840F4B9
:100890000040C1F80C08022200210846FFF7B8FD0D
:1008A00001220D210020FFF7B3FD01220F210020BE
:1008B000FFF7AEFD0223062219461846FFF75EFD3C
:1008C0000223282201211846FFF758FD10BD000021
:1008D000000121420080224288812242140401400A
:1008E000000001400010024000080140FFFF0F0F10
:1008F0000000808045F255523B4B1A601A4650600A
:1009000091604AF6AA221A604CF6CC421A607047EF
:100910004AF6AA2034490860704770B504460D466F
:1009200016463248C06940F400603049C861304919
:10093000097804EA01002E4908702E48006840EA50
:10094000C6102D49C1F8040C0846D0F8040C40F438
:100950000070C1F8040C274800684FF68071084009
:100960002549C1F8040C0846D0F8040C2843C1F806
:10097000040C2048001F00681D49097841F08001DF
:1009800008431D49C1F8000C022300220321184628
:10099000FFF7F4FC70BD1749091F096800F07F02DA
:1009A0001143154AC2F8001C704710B51148006881
:1009B00000F07F031048D0F8000C00F07F049C4248
:1009C00003DA0B480078FFF7E6FF00200949091D0C
:1009D00008600A48D0F8880108B9012000E000202A
:1009E0000749086010BD00000030004000100240C0
:1009F00008000020042C004000200040008022421B
:100A0000888122424848008810F0010F07D04748EB
:100A1000006808B9012000E000204449086042480D
:100A2000008820F001004FF08041A1F810047047C9
:100A300070B504460D463E48C06940F002003C498E
:100A4000C86139481C3004808804A0F82854B0F8E4
:100A50000C0440F001008904A1F80C040846B0F829
:100A60000C0440F04000A1F80C040846B0F8000463
:100A700040F00100A1F8000402231D2203210120FF
:100A8000FFF77CFC70BD2A4AD26942F00202284B73
:100A9000DA61284A126822F00F02274BC3F80428B3
:100AA0001A46D2F8042842F00402C3F804281A4671
:100AB000D2F8002822F07042C3F800281A46D2F873
:100AC000002842F03042C3F800281A46D2F80C2819
:100AD00042F08002C3F80C289A03A2F82C04A2F872
:100AE0002814B2F8182442F4E0429B03A3F8182417
:100AF0001A46B2F8182442F40062A3F818241A46E1
:100B0000B2F8202442F01002074B10331A80DA1397
:100B1000D303A3F80024D203B2F8002442F0010268
:100B2000014B103B1A80704710040040888122421C
:100B30000010024004080140000001404FF48071A1
:100B4000FF4A516149005161FE49086080215161AD
:100B5000116189001161704710B504460B462046AB
:100B6000FFF7ECFF4FF48070F549086140004861E1
:100B7000F44803608020486108618000086110BD6E
:100B800070B504462046FFF7D9FF4FF08830ED4995
:100B90000C390860EC49C1F8040C4FF6FF70E949C4
:100BA00008608815E64908614000486140204861B6
:100BB0000520FFF7AFFB4020E1490861E248D0F88B
:100BC000080C85B2481508614FF03330DD490C3907
:100BD0000860091D08604FF6FF70DA490860284672
:100BE00070BD00B52220FFF7A9FF00BD4FF4807152
:100BF000D34A116149005161D24908608021516195
:100C0000116189001161704730B5014601F01F0480
:100C1000C1F34513CA0AE50205EB43151544A8B212
:100C200030BD70B504460D46F02C02DAB5F5A07F54
:100C300001DB002070BD2946204601F025FD222061
:100C4000FFF77CFF4FF08830BE490C390860BE4981
:100C5000C1F8040C4FF6FF70BA4908608815B8490E
:100C60000861400048614020486108610220FFF7A8
:100C700051FB4020B24948610220FFF74BFB402066
:100C8000AF490861B048D0F8080C86B24815086131
:100C90004FF03330AB490C390860091D08604FF63E
:100CA000FF70A949C1F80C0CA8480088A0F58A413A
:100CB000353911D0A5480088A0F58A4131390BD0CB
:100CC000A2480088A0F50941893905D09F480088CD
:100CD000A0F53541053901D13046ABE73046FFF785
:100CE00093FFA7E700B540F273110720FFF734FF29
:100CF00000BD00B500210720FFF72EFF00BD70B535
:100D000004460D462946204601F0BEFC2220FFF78E
:100D100015FF4FF480708A490861400048618C4893
:100D20000088884908608020854948610861800002
:100D3000086170BD70B5054600240021084601F029
:100D4000A3FCFFF74EFF00BF0DE04FF480707C491D
:100D50000861400048617B48056080204861086167
:100D600080000861641CB4F5963FEED370BD10B5E9
:100D70007848806940F008007649886108468069B3
:100D800040F0100088610846806940F001008861E9
:100D90000120FFF7DDFB6A4840686FF30B006849EC
:100DA00048600846406840F233310843644948606F
:100DB0000846006820F07F4008600846006840F060
:100DC0004C5008600846C06840F4F860C8604FF0B6
:100DD00033305C49083908605B49C1F8000C4FF6B4
:100DE000FF70584908603220FFF779FA012100208E
:100DF000FFF7B2FE3220FFF772FA0020FFF7C0FEC5
:100E0000524908800846018853A001F023FB4F484F
:100E10000088A0F5134125397ED147F6F001E52081
:100E2000FFF79AFE4FF480710120FFF795FE4FF413
:100E3000E0610220FFF790FE41F230010320FFF74E
:100E40008BFE00210420FFF787FE40F202210820DC
:100E5000FFF782FE00210920FFF77EFE00210A2015
:100E6000FFF77AFE00210C20FFF776FE00210D200F
:100E7000FFF772FE00210F20FFF76EFE0021102009
:100E8000FFF76AFE07211120FFF766FE00211220FE
:100E9000FFF762FE00211320FFF75EFE002107200E
:100EA000FFF75AFE41F290611020FFF755FE40F225
:100EB00027211120FFF750FE9D211220FFF74CFE45
:100EC0004FF4C8511320FFF747FE25212920FFF7D3
:100ED00043FE0D212B20FFF73FFE07213020FFF7B7
:100EE0003BFE40F203313120FFF736FE0321322072
:100EF000FFF732FE40F206213520FFF72DFE0821D4
:100F00003620FFF729FE40F206413720FFF724FE86
:100F10004FF44171382000E06BE0FFF71DFE072120
:100F20003920FFF719FE40F202613C20FFF714FE62
:100F300008213D20FFF710FE0021502012E00000A4
:100F4000001001400C0C0140000001400E00002088
:100F50000A00002000100240204C43442049443A3B
:100F600025780A00FFF7F8FDEF215120FFF7F4FD87
:100F700000215220FFF7F0FD40F23F115320FFF710
:100F8000EBFD4FF427416020FFF7E6FD01216120D2
:100F9000FFF7E2FD00216A20FFF7DEFD002180203F
:100FA000FFF7DAFD00218120FFF7D6FD0021822026
:100FB000FFF7D2FD00218320FFF7CEFD0021842022
:100FC000FFF7CAFD00218520FFF7C6FD1021902004
:100FD000FFF7C2FD4FF4C0619220FFF7BDFD40F264
:100FE00033110720FFF7B8FD22210020FFF7B4FDE1
:100FF0008BE3FF480088A0F5134128397ED11021EA
:10100000E720FFF7A9FD01210020FFF7A5FD4FF420
:1010100080710120FFF7A0FD4FF4E0610220FFF78F
:101020009BFD41F230010320FFF796FD00210420D3
:10103000FFF792FD40F207210820FFF78DFD002108
:101040000920FFF789FD00210A20FFF785FD012116
:101050000C20FFF781FD00210D20FFF77DFD002111
:101060000F20FFF779FD00211020FFF775FD072104
:101070001120FFF771FD00211220FFF76DFD002107
:101080001320FFF769FD3220FFF729F941F2905153
:101090001020FFF761FD40F227211120FFF75CFDD2
:1010A0003220FFF71CF99C211220FFF755FD32205A
:1010B000FFF715F94FF4C8511320FFF74DFD232119
:1010C0002920FFF749FD0E212B20FFF745FD322097
:1010D000FFF705F900212020FFF73EFD40F23F1108
:1010E0002120FFF739FD3220FFF7F9F807213020E2
:1010F000FFF732FD40F20771312000E086E0FFF794
:101100002BFD06213220FFF727FD40F20471352028
:10111000FFF722FD41F604713620FFF71DFD042183
:101120003720FFF719FD00213820FFF715FD40F2A9
:1011300006713920FFF710FD40F201713C20FFF7E6
:101140000BFD0F213D20FFF707FD3220FFF7C7F809
:1011500000215020FFF700FDEF215120FFF7FCFC9C
:1011600000215220FFF7F8FC40F23F115320FFF717
:10117000F3FC4FF427416020FFF7EEFC01216120D2
:10118000FFF7EAFC00216A20FFF7E6FC002180203F
:10119000FFF7E2FC00218120FFF7DEFC0021822026
:1011A000FFF7DAFC00218320FFF7D6FC0021842022
:1011B000FFF7D2FC00218520FFF7CEFC1021902004
:1011C000FFF7CAFC00219220FFF7C6FC0321932001
:1011D000FFF7C2FC4FF488719520FFF7BDFC00219A
:1011E0009720FFF7B9FC00219820FFF7B5FC40F2EB
:1011F00033110720FFF7B0FC00212020FFF7ACFCE3
:1012000040F23F112120FFF7A7FCF1E67848008863
:10121000A0F51341203904D075480088B0F5134F6C
:101220007ED100210846FFF797FC4FF48071012022
:10123000FFF792FC4FF4E0610220FFF78DFC41F2D2
:1012400030010320FFF788FC00210420FFF784FC15
:1012500040F202210820FFF77FFC00210920FFF760
:101260007BFC00210A20FFF777FC01210C20FFF70F
:1012700073FC00210D20FFF76FFC00210F20FFF70A
:101280006BFC3220FFF72BF840F201110720FFF72B
:1012900063FC3220FFF723F84FF486511020FFF74C
:1012A0005BFC07211120FFF757FC4FF488711220D7
:1012B000FFF752FC4FF430611320FFF74DFC002183
:1012C0002920FFF749FC44F210012B20FFF744FCD2
:1012D00000215020FFF740FCEF215120FFF73CFC9C
:1012E00000215220FFF738FC40F23F115320FFF756
:1012F00033FC4FF41C516020FFF72EFC01216120CC
:10130000FFF72AFC00216A20FFF726FC002180203D
:10131000FFF722FC00218120FFF71EFC002100E0E6
:101320002DE08220FFF718FC00218320FFF714FC3A
:1013300000218420FFF710FC00218520FFF70CFC22
:1013400010219020FFF708FC00219220FFF704FCF9
:1013500001219320FFF700FC4FF488719520FFF7DF
:10136000FBFB00219720FFF7F7FB00219820FFF7F8
:10137000F3FB40F273110720FFF7EEFB38E61C4841
:101380000088A0F5A84108397DD14FF48071012073
:10139000FFF7E2FB4FF4E0610220FFF7DDFB41F2D3
:1013A00030010320FFF7D8FB00210420FFF7D4FB16
:1013B00040F207210820FFF7CFFB00210920FFF7AB
:1013C000CBFB00210A20FFF7C7FB00210C20FFF711
:1013D000C3FB00210D20FFF7BFFB00210F20FFF70B
:1013E000BBFB1420FEF77BFF41F2B061102001E04F
:1013F0000E000020FFF7B0FB01211120FFF7ACFB2E
:1014000001211720FFF7A8FB4FF49C711220FFF772
:10141000A3FB4FF400611320FFF79EFB0921292055
:10142000FFF79AFB09212A20FFF796FB0021A42051
:10143000FFF792FB00215020FFF78EFBEF21512098
:10144000FFF78AFB00215220FFF786FB40F23F1195
:101450005320FFF781FB4FF41C516020FFF77CFB0A
:1014600001216120FFF778FB00216A20FFF774FB60
:1014700000218020FFF770FB00218120FFF76CFB2B
:101480000021822000E027E0FFF766FB0021832097
:10149000FFF762FB00218420FFF75EFB002185201F
:1014A000FFF75AFB13219020FFF756FB00219220F3
:1014B000FFF752FB03219320FFF74EFB4FF4887197
:1014C0009520FFF749FB40F273110720FFF744FB1B
:1014D0003220FEF704FF8BE5FF480088A0F5A851F5
:1014E00005397ED10720FFF737FB3220FEF7F7FEE4
:1014F0004FF48E711220FFF72FFB0121A420FFF77C
:101500002BFB0F210820FFF727FB08210A20FFF7FC
:1015100023FB08210D20FFF71FFB40F2077130204D
:10152000FFF71AFB07213120FFF716FB40F203619A
:101530003220FFF711FB4FF4E0613320FFF70CFB83
:1015400040F202213420FFF707FB02213520FFF78C
:1015500003FB41F60F713620FFF7FEFA40F20771E8
:101560003720FFF7F9FA00213820FFF7F5FA0021BC
:101570003920FFF7F1FA40F207713A20FFF7ECFA51
:1015800000213B20FFF7E8FA07213C20FFF7E4FAAF
:1015900000213D20FFF7E0FA3220FEF7A0FE0121F6
:1015A0000720FFF7D9FA01211720FFF7D5FA3220DB
:1015B000FEF795FE4FF4BD511020FFF7CDFA40F233
:1015C00017211120FFF7C8FA4FF48F711220FFF78F
:1015D000C3FA4FF470611320FFF7BEFA00212A20EE
:1015E00000E093E0FFF7B8FA0A212920FFF7B4FAE8
:1015F0004FF49F711220FFF7AFFA00215020FFF740
:10160000ABFAEF215120FFF7A7FA00215220FFF794
:10161000A3FA40F23F115320FFF79EFA4FF41C51FA
:101620006020FFF799FA01216120FFF795FA002168
:101630006A20FFF791FA00218020FFF78DFA002140
:101640008120FFF789FA00218220FFF785FA002127
:101650008320FFF781FA00218420FFF77DFA002123
:101660008520FFF779FA13219020FFF775FA4FF4E0
:1016700040719220FFF770FA05219320FFF76CFA72
:1016800000219520FFF768FA00219720FFF764FA00
:1016900000219820FFF760FA4FF480710120FFF7D6
:1016A0005BFA4FF4E0610220FFF756FA41F2300195
:1016B0000320FFF751FA00210420FFF74DFA002123
:1016C0000C20FFF749FA00210F20FFF745FA00210F
:1016D0002020FFF741FA00212120FFF73DFA2121C8
:1016E0000720FFF739FA1420FEF7F9FD61210720E2
:1016F000FFF732FA1420FEF7F2FD40F273110720D3
:10170000FFF72AFA1420FEF7EAFD49E37248008841
:10171000A0F5354105397DD10846FFF71DFA0021B6
:101720000846FFF719FA00210846FFF715FA0021CD
:101730000846FFF711FA0121A420FFF70DFA142043
:10174000FEF7CDFD4FF41C516020FFF705FA40F283
:1017500002210820FFF700FA4FF405713020FFF74F
:10176000FBF943F215713120FFF7F6F940F20461FD
:101770003220FFF7F1F940F616613320FFF7ECF95C
:1017800042F211213420FFF7E7F94FF4A851352038
:10179000FFF7E2F948F207513620FFF7DDF941F291
:1017A00007413720FFF7D8F941F203413820FFF70E
:1017B000D3F920213920FFF7CFF91A219020FFF724
:1017C000CBF900211020FFF7C7F907211120FFF7FF
:1017D000C3F900211220FFF7BFF900211320FFF702
:1017E000BBF91420FEF77BFD4FF4E6611020FFF7F4
:1017F000B3F940F237111120FFF7AEF91420FEF7CC
:101800006EFD4FF4DC711220FFF7A6F91420FEF7ED
:1018100066FD00E086E04FF470611320FFF79CF94D
:1018200080212A20FFF798F948212920FFF794F911
:101830001420FEF754FD4FF480710120FFF78CF95E
:101840004FF4E0610220FFF787F941F230210320D5
:10185000FFF782F940F202210820FFF77DF900210D
:101860000A20FFF779F900210C20FFF775F9002114
:101870000D20FFF771F930210E20FFF76DF90021DF
:101880005020FFF769F9EF215120FFF765F900219A
:101890005220FFF761F940F23F115320FFF75CF946
:1018A0004FF41C516020FFF757F901216120FFF729
:1018B00053F900216A20FFF74FF911219020FFF71B
:1018C0004BF94FF4C0619220FFF746F940F2024114
:1018D0009320FFF741F901E00E000020022194203F
:1018E000FFF73AF91420FEF7FAFC01210720FFF771
:1018F00033F91420FEF7F3FC61210720FFF72CF9E0
:1019000040F273110720FFF727F900212020FFF78D
:1019100023F900212120FFF71FF922210020FFF7E2
:101920001BF93DE2FF480088A0F5094189397DD1C6
:1019300001210020FFF710F94AF6A4010320FFF768
:101940000BF900210C20FFF707F940F60C010D20E0
:10195000FFF702F94FF42C510E20FFF7FDF8B021EC
:101960001E20FFF7F9F842F63F310120FFF7F4F8A7
:101970004FF4C0610220FFF7EFF800211020FFF7BD
:10198000EBF846F270011120FFF7E6F80021052080
:10199000FFF7E2F800210620FFF7DEF84EF61C7193
:1019A0001620FFF7D9F803211720FFF7D5F840F2EA
:1019B00033210720FFF7D0F800210B20FFF7CCF8E8
:1019C00000210F20FFF7C8F800214120FFF7C4F8DD
:1019D00000214220FFF7C0F800214820FFF7BCF8A3
:1019E00040F23F114920FFF7B7F800214A20FFF7E6
:1019F000B3F800214B20FFF7AFF84FF46F414420BC
:101A0000FFF7AAF800214520FFF7A6F840F23F11A2
:101A10004620FFF7A1F840F207713020FFF79CF84D
:101A20004FF401713120FFF797F800E03DE04FF4EB
:101A300001713220FFF790F840F202513320FFF796
:101A40008BF840F207513420FFF786F84FF401710C
:101A50003520FFF781F84FF401713620FFF77CF84D
:101A600040F202513720FFF777F840F202313A2076
:101A7000FFF772F840F202313B20FFF76DF80021CA
:101A80002320FFF769F800212420FFF765F84FF4C1
:101A900000412520FFF760F800214F20FFF75CF898
:101AA00000214E20FFF758F87AE19E480088A0F503
:101AB0008A4131397ED101210020FFF74DF80A20FB
:101AC000FEF70DFC41F228611020FFF745F80E21CA
:101AD0001220FFF741F840F639211320FFF73CF8B8
:101AE0000A20FEF7FCFB40211120FFF735F85021BA
:101AF0001520FFF731F80A20FEF7F1FB1E21122016
:101B0000FFF72AF80A20FEF7EAFB4FF4B151102044
:101B1000FFF722F842F639211320FFF71DF80A20BB
:101B2000FEF7DDFB4FF480710120FFF715F84FF44D
:101B300040710220FFF710F841F230010320FFF757
:101B40000BF840F202210820FFF706F808210A20CE
:101B5000FFF702F800213020FEF7FEFF40F20241BD
:101B60003120FEF7F9FF4FF483713220FEF7F4FFC6
:101B700040F203513320FEF7EFFF4FF4827134201F
:101B8000FEF7EAFF40F201313520FEF7E5FF40F2B3
:101B900007713620FEF7E0FF40F205313720FEF7EF
:101BA000DBFF4FF402713820FEF7D6FF40F60B71D1
:101BB000392000E03BE0FEF7CFFF02214120FEF795
:101BC000CBFF4FF41C516020FEF7C6FF01216120BE
:101BD000FEF7C2FF4FF404719020FEF7BDFF4FF4F3
:101BE00085719220FEF7B8FF04219320FEF7B4FF21
:101BF0004FF48071A020FEF7AFFF01210720FEF710
:101C0000ABFF21210720FEF7A7FF23210720FEF7C6
:101C1000A3FF33210720FEF79FFF40F23311072077
:101C2000FEF79AFF0021A020FEF796FFB8E03D489E
:101C30000088A0F58A413539F8D130211520FEF70A
:101C40008BFF10219A20FEF787FF20211120FEF73D
:101C500083FF43F228411020FEF77EFF022112206D
:101C6000FEF77AFF41F238011320FEF775FF2820B6
:101C7000FEF735FB12210846FEF76EFF2820FEF71F
:101C80002EFB43F220411020FEF766FF43F238019D
:101C90001320FEF761FF4620FEF721FB00213020D4
:101CA000FEF75AFF40F202413120FEF755FF40F2A5
:101CB00007313220FEF750FF4FF441713320FEF719
:101CC0004BFF04213420FEF747FF40F2014135204D
:101CD000FEF742FF40F207713620FEF73DFF40F26B
:101CE00005313720FEF738FF4FF4C2613820FEF788
:101CF00033FF4FF4C2613920FEF72EFF4FF480719D
:101D00000120FEF729FF4FF440710220FEF724FF67
:101D100041F230010320FEF71FFF40F608010820C2
:101D200002E000000E000020FEF716FF08210A2046
:101D3000FEF712FF4FF41C516020FEF70DFF01214A
:101D40006120FEF709FF4FF49F719020FEF704FF1A
:101D50004FF480719220FEF7FFFE4FF480719320C4
:101D6000FEF7FAFE4FF44051A020FEF7F5FE1021D9
:101D7000A320FEF7F1FE01210720FEF7EDFE212151
:101D80000720FEF7E9FE23210720FEF7E5FE3321B9
:101D90000720FEF7E1FE40F233110720FEF7DCFEDC
:101DA0000120FF4908604FF6FF70FEF7C3FF10BD2A
:101DB0002DE9F05F04460D4616461F46DDF82880E3
:101DC0004FF0000B301B401C1FFA80FBA94620E09F
:101DD0004946204600F058FCFEF703FF4FF0000A8A
:101DE00011E04FF48070EF49086140004861EE480F
:101DF000C0F80C8C802048610861800008610AF1FD
:101E000001001FFA80FADA45EBDB09F101001FFA45
:101E100080F9B945DCDDBDE8F09F2DE9FF4F85B0C5
:101E200004460D461646002004900390A6EB0408D5
:101E30000898A0EB0509A3460095B8F1000F02DD54
:101E4000012001900AE0B8F1000F02D100200190BA
:101E500004E04FF0FF300190C8F10008B9F1000F25
:101E600002DD4FF0010A09E0B9F1000F02D14FF095
:101E7000000A03E04FF0FF3AC9F10009C84502DD4E
:101E8000CDF8088001E0CDF80890002722E0009806
:101E900081B21FFA8BF0FEF732FF049840440490A1
:101EA00003984844039002990498884205DD0499F8
:101EB0000298081A049001988344DDE902108842D0
:101EC00006DDDDE90210401A0390009850440090AE
:101ED000781C87B20298401C8742D8DD09B0BDE863
:101EE000F08F2DE9F04104460D4616461F462B465D
:101EF000324629462046FFF790FF3B4622462946B8
:101F00002046FFF78AFF3B46324639462046FFF718
:101F100084FF3B46324629463046FFF77EFFBDE848
:101F2000F0812DE9F04704460D4616460027B046DD
:101F30000320A0EB460954E0EA1B91B2A4EB08028F
:101F400090B2FEF7DCFEEA1B91B204EB080290B2FD
:101F5000FEF7D5FE05EB080291B2E21B90B2FEF748
:101F6000CEFEEA1B91B2A4EB080290B2FEF7C7FEC8
:101F7000A5EB080291B2E21B90B2FEF7C0FEEA198F
:101F800091B204EB080290B2FEF7B9FEA5EB08028D
:101F900091B2E21990B2FEF7B2FE05EB080291B2DF
:101FA000E21990B2FEF7ABFEEA1991B2A4EB080277
:101FB00090B2FEF7A4FE7F1CB9F1000F03DAB8005F
:101FC000801D814406E0A7EB080080000A308144B0
:101FD000A8F1010805EB080291B2E21990B2FEF7F0
:101FE0008EFE4745A8DDBDE8F0872DE9F84F044691
:101FF0000D4616461F46A3466C4800880090E82C04
:1020000002DCB5F59C7F01DDBDE8F88FA6F120006C
:10201000C6B20A98002839D1814634E00C2F07D186
:1020200006EB4600624901EB800010F8098004E0ED
:10203000604800EB061010F809804FF0000A16E027
:1020400018F0010F03D059490098088003E05A485E
:1020500000885649088029462046FEF750FE4FEA80
:102060006808601C84B20AF1010000F0FF0A07EB67
:10207000D771BAEB610FE3DB5C46681C85B209F1EE
:10208000010000F0FF09B945C8DB30E04FF000095E
:102090002BE00C2F07D106EB4600454901EB8000F1
:1020A00010F8098004E0434800EB061010F809809E
:1020B0004FF0000A10E018F0010F07D005EB0902FD
:1020C00091B204EB0A0290B2FEF719FE4FEA6808DB
:1020D0000AF1010000F0FF0A07EBD771BAEB610FBC
:1020E000E9DB09F1010000F0FF09B945D1DB2F4917
:1020F0000098088088E710B50246012000E05043B0
:102100000B00A1F10104E1B2F9D110BD2DE9FF4F9F
:1021100081B0044615461E460E9F4FF0000AD04679
:102120004EE0A6EB0800401EC1B20A20FFF7E3FF15
:10213000B5FBF0F00A21B0FBF1F201FB120000F058
:10214000FF09BAF1000F16D1701E404513DDB9F139
:10215000000F0ED10023BB4607EBD771491001FBDE
:10216000084188B200933B4620220299FFF73DFFC9
:1021700012E04FF0010A0023BB4607EBD77149106C
:1021800001FB084188B200933B4609F13001CAB215
:102190000299FFF72AFF00BF08F101000EE00000DE
:1021A000A801224200100140000001400A00002066
:1021B000FA2D00086E3200080C00002000F0FF0825
:1021C000B045AEDB05B0BDE8F08F2DE9F84F044611
:1021D0000D4616461F46DDF828804FF0000923E023
:1021E000A7EB0900401EC1B20A20FFF784FFB6FB2F
:1021F000F0F00A21B0FBF1F201FB120000F0FF0A3F
:102200000B9BC34608EBD871491001FB094188B20A
:10221000009343460AF13001CAB22946FFF7E5FEB2
:1022200009F1010000F0FF09B945D9DBBDE8F88FDD
:10223000F8B504460D4616461BE0E82C03DD0024E5
:1022400005F1100085B2B5F59C7F06DD002004463F
:1022500005464FF6FF70FEF76DFD002300933278C0
:10226000102329462046FFF7C0FE04F1080084B27F
:10227000761C30780028E0D1F8BD00002DE9F0414F
:1022800004460F4615466E480688058039462046A6
:10229000FEF735FD6A480680BDE8F0812DE9F05F64
:1022A00004460D4616461F46AB464FF000093EE079
:1022B000B9F1100F05DA634901EB461010F80980F7
:1022C00009E0012101EB46005E4901EB0010A9F194
:1022D000100110F801804FF0000A20E018F0800F84
:1022E00005D03A4629462046FFF7C8FF05E0564884
:1022F000028829462046FFF7C1FF4FEA48604FEAAF
:102300001068681C85B2A5EB0B00102803D15D4650
:10231000601C84B206E00AF1010000F0FF0ABAF185
:10232000080FDBDB00BF09F1010000F0FF09B9F184
:10233000200FBDDBBDE8F09F2DE9F05F04460D46A0
:1023400016461F46AB464FF0000954E0B9F1180F8E
:1023500009DA06EB460000EB40003C4901EBC00007
:1023600010F809801BE0B9F1300F0CDA06EB4600DB
:10237000401C00EB4000354901EBC000A9F11801F9
:1023800010F801800BE006EB4600801C00EB4000DB
:102390002E4901EBC000A9F1300110F801804FF087
:1023A000000A20E018F0800F05D03A462946204662
:1023B000FFF764FF05E02448028829462046FFF71E
:1023C0005DFF4FEA48604FEA1068681C85B2A5EBD4
:1023D0000B00182803D15D46601C84B206E00AF1A8
:1023E000010000F0FF0ABAF1080FDBDB00BF09F1C2
:1023F000010000F0FF09B9F1480FA7DBBDE8F09F2D
:1024000070B5322006460546002415E04FF47843A7
:10241000224632212846FFF741FF4FF478432246F7
:1024200046213046FFF788FF05F11000C5B206F1DE
:102430001800C6B2601CC4B2072CE7DB70BD0000F8
:102440000A0000205E3800080C0000203E39000819
:10245000704700000FB4054A054910B503AB794435
:10246000029800F0CEF810BC5DF814FB04000020C8
:10247000D5E1FFFF2DE9F04104460E4600202BE098
:10248000E1682046884748B3252802D0D4E90121D5
:102490001FE0E16820460027884705001ED0A5F10F
:1024A0004100192802D820354FF4006732462946EA
:1024B00020462760FDF754FE40B1012801D1361DAA
:1024C000DEE7F61D26F007060836D9E7D4E9012134
:1024D00028469047206A401C2062D1E7206ABDE868
:1024E000F081000070B504460D4621461068AFF338
:1024F00000802168090502D5104A7A4402E00F4A9B
:102500007A440E32002104F1240306E000F00F06A5
:102510004FEA1010965D5E54491C0028F6D12068E1
:102520000023000704D5702D02D009B11132022317
:102530002046BDE8704000F007B8000038160000E3
:1025400070477047704770472DE9F0470D460446C5
:102550009246994600F124080168880604D5E0698E
:1025600021F01001216000E001200027A84200DDD9
:10257000471BA1697A1902EB0900081AA0612068BB
:10258000C00602D42046AFF30080002608E0D4E95C
:1025900001211AF806009047206A401C761C206230
:1025A0004E45F4DB2068C0060AD52046AFF3008014
:1025B00006E0D4E9012130209047206A401C2062C7
:1025C000381EA7F10107F4DC07E0D4E9012118F86F
:1025D00005009047206A401C2062281EA5F10105D5
:1025E000F3DC2046AFF3008021680220090600D406
:1025F0000120BDE8F087000001694A1C02610878EB
:10260000704710B50C46194690B0CDE90242002241
:102610000692044A7A44CDE9042001A8FFF72AFF74
:1026200010B010BDE1FFFFFF754600F029F8AE467F
:1026300005006946534620F00700854618B020B5CE
:10264000FDF7B4FDBDE820404FF000064FF0000755
:102650004FF000084FF0000B21F00701AC46ACE84A
:10266000C009ACE8C009ACE8C009ACE8C0098D46B7
:1026700070470446AFF300802046FDF785FD00005B
:10268000004870471000002030B504460D460C4845
:102690000088A0F50941893908D121464E20FEF76E
:1026A0005BFA29464F20FEF757FA07E02146202023
:1026B000FEF752FA29462120FEF74EFA30BD0000FF
:1026C0000E00002090EA010F48BF81F0004100F1A8
:1026D0007C82421A3CBF801A89184FEAD0524FF0D0
:1026E0007F4C1CEA410FA2EBD15318BF9CEA026F4A
:1026F00000F040804FF0004C4CEA00204CEA0121F1
:1027000021FA03FC10EB0C0C23D202F1FF325FEA3A
:102710001C2040EBC25038BF70471CF07F0F4FEABF
:10272000400C18BFBCF17F4F38BF7047C3F1200386
:10273000994008BF20F00100BCF17F4F38BF7047BF
:10274000A0F1C0404FF0FF0141EAD0514FEAC15023
:1027500070474FEA3C00000A40EBC25028BF1CF013
:10276000FF0F4FEA400CE1D018BFBCF17F4F38BFDC
:102770007047E5E79CEA026F05D010EA5C0F08BFDE
:1027800000F000407047BCEB410F4FEA400228BF09
:102790009445DFF828C0C0F01580AFF30080B2EB9D
:1027A000410F05D012F1807F08BF7047084670477F
:1027B00090EA010F58BF70470148704701000004BC
:1027C0000000C07F014800F0CEBA00000000C07FCA
:1027D000014800F0C8BA00000000C07F4FF47F0C31
:1027E0001CEAD0121EBF1CEAD11392EA0C0F93EA26
:1027F0000C0F00F0A58090EA010F48BF42F48072F0
:1028000040F4000C41F400002CF07F4120F07F40A8
:1028100000B58142A2EB03020FF2401CACEB504E1C
:10282000C0F100009EF800E04FEA4E0E00FB0EFCE7
:1028300038BF49004FEA2C1C02F5FA020CFB0EF3DC
:102840004FEACE1E4FEA112C4FEAC1210EEB635E18
:102850000EFB0CFC4FEA1C5300FB03114FEA112C3A
:102860004FEA01310EFB0CFC02F4807E42EB224267
:102870004FEADC4C00FB0C11C14228BF09184CEB9D
:102880000333012924BF4EF0020E4EF0804E10EBB0
:10289000410F24BF4EF0010E4EF0804E08BF4EF0A7
:1028A000040E4EF008015DF804EB43EBC25018BF74
:1028B000B2F57C0F38BF704741EAC07108BF20F005
:1028C0000100B2F57C0F38BF704729D512F0F00F28
:1028D0001CBF00F1C04000F00040704700818283BF
:1028E0008485868788898B8C8D8E8F91929395961F
:1028F00097999A9C9D9FA0A2A3A5A7A8AAACAEB0A9
:10290000B2B3B5B7B9BCBEC0C2C5C7C9CCCED1D4AD
:10291000D7D9DCDFE2E6E9ECF0F3F7FAFE000000DD
:102920004FEA400C0CF1807CBCF17E4F28BF704711
:10293000B0F1C0404FF07F404CBF4010400870479E
:1029400090EA010F0CEAD11348BF42F4807262454D
:1029500038BF634507D213F47F0F23D080EA01000C
:1029600000F0004070474FF0807C1CEB400F98BF98
:102970001CEB410FDFF840C03FF624AFAFF30080FF
:102980004FF0807C1CEB400F02BF1CEB410F0B484B
:1029900070471CEB410F0CBF002020F0004040EAC4
:1029A000C250704712F47F0F04BF0448704742F0D2
:1029B000FF004FEAC0507047040000040000C07FD1
:1029C000C2154FEA002318BF43F0004305D4D2F1EB
:1029D0009E020AD323FA02F070474FEA4001B1F198
:1029E000FE4F02D24FF000007047DFF828C04FEAD8
:1029F0004001B1F17F4F88BF4CF4803C3FF6E8AE18
:102A00001CBF6FEAE0707047AFF300806FEAE070C0
:102A1000704700006800020410F0004218BF4042F6
:102A200042F08042B0FA80F18840A2EBC15202F13C
:102A3000786208BF7047410642EB202018BF5FF064
:102A4000806C28BF20F0010070474FF08042FFF7F4
:102A5000E9BF00004FF47F0C1CEAD0121EBF1CEA35
:102A6000D11392EA0C0F93EA0C0F00F04A8090EA1F
:102A7000010F48BF42F480724FF0004C4CEA002036
:102A80004CEA01211A44A0FB01C3A2F50002BCF1EB
:102A9000000F18BF43F0010302F4807CB3F1004F34
:102AA00038BF5B0042EB2242180A40EBC25028BFFD
:102AB00013F07F0F18BFB2F57C0F38BF704708BF07
:102AC00020F00100B2F57C0F38BF70470BD582F0C3
:102AD000FF0212F5803FC8BF704700F1C040D8BF69
:102AE00000F00040704700F5000C5FEA4C0C48BF56
:102AF0007047B0F1C0404FF07F404CBF40104008DD
:102B0000704790EA010F0CEAD11348BF42F480727B
:102B1000624538BF634504D280EA010000F00040FE
:102B200070474FF0807C1CEB400F98BF1CEB410FAF
:102B30004FF0030C4CF0806C3FF644AEAFF30080D6
:102B400012F47F0F1FBF13F47F0F42F0FF02D00576
:102B500070470148704700000000C07F10B412F4B5
:102B60007F0F4FEA00204FEA012110D1B0FA80F424
:102B700000FA04F0A2EB044213F47F0F02F5803256
:102B800018BF41F0004100D010BC18BF604740F0B2
:102B90000040B1FA81F401FA04F1A3EB044310BC44
:102BA00003F58033604780F0004090EA010F7FF525
:102BB00090AD81F0004100F008B8000090EA010FEC
:102BC00048BF81F000413FF584AD421A3EBF82F01C
:102BD0000042801A89184FEAD0524FF07F4C1CEA0D
:102BE000410FA2EBD15318BF9CEA026F4FD04FF0B8
:102BF000004C4CEA00204CEA012121FA03FCB0EB26
:102C00000C0C0FD412F0FE0F18BF5FEA4C001DD55C
:102C1000001240EBC25038BF70471CF03F0F18BF86
:102C200070470BE0A2F101025FEA1C2040EBC250AA
:102C300038BF70471CF07F0F18BF7047C3F12003E7
:102C4000994014BF401E20F0010070474FEA122344
:102C500016D0004204BF002070474FEA9000B0FA3F
:102C600080FCA2EB0C02CCF1280C60FA0CF093EA89
:102C7000122F04BF00EBC25070474FEAC370704779
:102C80005FEADC1008BF70474FEAC37070479CEAE8
:102C9000026F04D010EA5C0F08BF00207047BCEB45
:102CA000410F4FEA400228BF9445DFF82CC0FFF4E3
:102CB00089ADAFF30080B2EB410F06D012F1807FF7
:102CC00008BF704781F00040704790EA010F48BF8D
:102CD0007047024870470000020000040000C07FF7
:102CE00000F0004343EAD05323F48073C3F1C103DF
:102CF00023F0004117291FD8C3F1200310FA03F174
:102D0000C3F1200320F07F4040F4000020FA03F0DC
:102D100003F0004340EA03000DD00B46590009D3ED
:102D200018BF401C06D17FEAE27398BF401C38BF31
:102D300020F0010070477047182903EB912318BF5A
:102D40006FF00041013168BF03F0004009D6400236
:102D500003F0004000F1010004BF12F0004F20F02A
:102D60000100704770470CF00F03092B08BF0820C3
:102D700000F02B800A2B0BD0082B18BF704708BF20
:102D80001CF0400F0AD04FF000004FF000017047D8
:102D90001CF0400F18BF4FF0004070471CF0100FA0
:102DA00008D020F0704300F07F4242EAD3014FEA9E
:102DB0004370704700F0604021F07F4242EA000219
:102DC00001F07F4040EA727070471CF4801F11D000
:102DD0001CF4E02F03D06FEACC31490070474FF06C
:102DE0004050EFF3008222F0704242EA000282F388
:102DF000008870474FF0000070470000000000009E
:102E000000000000000000000404040404040004A6
:102E1000000000140A0A000000000000000000008A
:102E200014143F140A3F0A0A000000041E15050688
:102E30000C14150F0400000012150D0A142C2A1290
:102E400000000000040A0A1E1515093600000002E1
:102E50000201000000000000000000201008080827
:102E600008080810200000020408080808080804E0
:102E7000020000000004150E0E1504000000000002
:102E80000404041F0404040000000000000000000B
:102E900000000002020100000000001F000000000E
:102EA0000000000000000000000000020000001010
:102EB0000808080404020202010000000E111111AA
:102EC0001111110E00000000040604040404040E95
:102ED000000000000E1111080402011F0000000094
:102EE0000E11100C1010110E00000000080C0A0A40
:102EF000091E0818000000001F01010F1010110E1C
:102F0000000000000E09010F1111110E0000000059
:102F10001F09080404040404000000000E11110E2F
:102F20001111110E000000000E1111111E10120ED1
:102F30000000000000000400000000040000000089
:102F40000000000400000004040000201008040237
:102F5000040810200000000000001F00001F0000F7
:102F60000000000204081020100804020000000005
:102F70000E11110804040004000000000E111915C0
:102F8000151D011E0000000004040C0A0A1E123365
:102F9000000000000F12120E1212120F00000000AB
:102FA0001E1101010101110E000000000F1212128A
:102FB0001212120F000000001F120A0E0A02121F46
:102FC000000000001F120A0E0A02020700000000A3
:102FD0001C1201013911120C000000003312121EE4
:102FE00012121233000000001F0404040404041F22
:102FF000000000003E080808080808090700000053
:1030000037120A060A0A12370000000007020202FD
:103010000202223F000000001B1B1B1B151515158B
:10302000000000003B1216161A1A121700000000CA
:103030000E1111111111110E000000000F12120ECD
:1030400002020207000000000E1111111117190EE3
:10305000180000000F12120E0A12123700000000B2
:103060001E1101060810110F000000001F150404B6
:103070000404040E00000000331212121212120C8B
:10308000000000003312120A0A0C040400000000C1
:103090001515150E0A0A0A0A000000001B0A0A0488
:1030A000040A0A1B000000001B0A0A040404040EA0
:1030B000000000001F0908040402121F0000001C89
:1030C00004040404040404041C00000202020404B6
:1030D000080808100000000E08080808080808087A
:1030E0000E0000040A0000000000000000000000C4
:1030F0000000000000000000003F0004000000008D
:1031000000000000000000000000000C121C123C37
:10311000000000000302020E1212120E0000000056
:103120000000001C1202021C000000001810101CFD
:103130001212123C000000000000000C121E021CC3
:10314000000000003804041E0404041E00000000F7
:103150000000003C120C021E221C00000302020EA2
:103160001212123700000000040000060404040ECE
:10317000000000000800000C08080808080700000C
:103180000302023A0A0E123700000000070404048A
:103190000404041F000000000000000F15151515A1
:1031A000000000000000000F1212123700000000A3
:1031B0000000000C1212120C000000000000000FB2
:1031C0001212120E020700000000001C1212121C44
:1031D000103800000000001B06020207000000007B
:1031E0000000001E020C101E000000000004040E6F
:1031F00004040418000000000000001B1212123C1E
:103200000000000000000037120A0C04000000005B
:1032100000000015150E0A0A000000000000001B47
:103220000A040A1B0000000000000037120A0C0408
:10323000040300000000001E0804041E0000001823
:1032400008080804080808081800080808080808FA
:103250000808080808080006040404080404040414
:103260000600022518000000000000000000000019
:10327000000000000000000000000000000000004E
:10328000000808080808080800001818000000488E
:103290006C2412000000000000000000000000008C
:1032A000002424247F1212127F1212120000000048
:1032B000081C2A2A0A0C1828282A2A1C0808000098
:1032C0000022251515152A585454542200000000D8
:1032D000000C1212120A76252911916E00000006C8
:1032E0000604030000000000000000000000004091
:1032F00020101008080808080810102040000002DC
:103300000408081010101010100808040200000033
:10331000000008086B1C1C6B08080000000000007F
:103320000000080808087F080808080000000000DE
:10333000000000000000000000000606040300007A
:10334000000000000000FE0000000000000000007F
:103350000000000000000000000006060000000061
:1033600080404020201010080804040202000000E1
:103370000018244242424242424224180000000007
:1033800000080E08080808080808083E00000000A9
:10339000003C4242422020100804427E000000000F
:1033A000003C4242201820404042221C0000000005
:1033B00000203028242422227E20207800000000D3
:1033C000007E0202021A26404042221C0000000039
:1033D00000382402021A264242422418000000004B
:1033E000007E2222101008080808080800000000CB
:1033F000003C4242422418244242423C0000000069
:1034000000182442424264584040241C000000003E
:10341000000000001818000000001818000000004C
:103420000000000000080000000000080804000080
:103430000040201008040204081020400000000092
:10344000000000007F0000007F000000000000007E
:1034500000020408102040201008040200000000B0
:10346000003C4242464020101000181800000000A6
:10347000001C225A555555552D42221C00000000B3
:10348000000808181414243C224242E700000000FF
:10349000001F2222221E22424242221F0000000060
:1034A000007C4242010101010142221C0000000097
:1034B000001F2242424242424242221F00000000BC
:1034C000003F4212121E12120242423F0000000050
:1034D000003F4212121E12120202020700000000F8
:1034E000003C2222010101712122221C0000000067
:1034F00000E7424242427E42424242E70000000070
:10350000003E0808080808080808083E00000000F7
:10351000007C10101010101010101010110F00006F
:10352000007722120A0E0A121222227700000000EF
:1035300000070202020202020202427F00000000B3
:103540000077363636362A2A2A2A2A6B00000000EF
:1035500000E346464A4A5252526262470000000067
:10356000001C2241414141414141221C0000000018
:10357000003F424242423E020202020700000000B7
:10358000001C2241414141414D53321C600000006A
:10359000003F4242423E1212222242C70000000077
:1035A000007C4242020418204042423E00000000DB
:1035B000007F4908080808080808081C00000000E7
:1035C00000E74242424242424242423C0000000086
:1035D00000E74242222424141418080800000000C6
:1035E000006B494949495555362222220000000006
:1035F00000E7422424181818242442E700000000A1
:1036000000772222141408080808081C0000000093
:10361000007E2120101008040442423F0000007880
:1036200008080808080808080808080878000000C2
:103630000202040408080810102020204040001E48
:103640001010101010101010101010101E00003864
:103650004400000000000000000000000000000026
:1036600000000000000000000000000000FF000655
:103670000800000000000000000000000000000042
:1036800000000000003C4278444242FC0000000080
:1036900000030202021A26424242261A00000000DB
:1036A000000000000038440202024438000000001C
:1036B0000060404040784442424264D8000000002C
:1036C00000000000003C427E0202423C000000007C
:1036D00000F08808087E08080808083E000000007E
:1036E00000000000007C22221C023C42423C000000
:1036F00000030202023A4642424242E70000000052
:10370000000C0C00000E08080808083E000000002D
:10371000003030000038202020202020221E000011
:10372000000302020272120A161222770000000041
:10373000000E0808080808080808083E00000000F5
:1037400000000000007F9292929292B70000000069
:1037500000000000003B4642424242E700000000F9
:1037600000000000003C42424242423C0000000097
:1037700000000000001B26424242221E02070000F9
:1037800000000000007844424242447840E00000DB
:103790000000000000774C040404041F0000000037
:1037A00000000000007C42023C40423E000000005D
:1037B00000000008083E0808080808300000000063
:1037C0000000000000634242424262DC0000000050
:1037D0000000000000E74224241408080000000054
:1037E0000000000000EB494955552222000000006E
:1037F00000000000007624181818246E0000000055
:103800000000000000E74224241418080807000004
:1038100000000000007E22100808447E000000C066
:10382000202020202010202020202020C000101048
:1038300010101010101010101010101010100006A2
:1038400008080808081008080808080806000C32CC
:10385000C2000000000000000000000000000200A4
:1038600042024204420842307FC04200420042000D
:1038700042007FFE4200420042004200000000027F
:1038800008047C08081108E10F82F962091409088C
:10389000491429E43802080308020800000008203F
:1038A00008C00B00FFFE0A00098800707F824604F2
:1038B000458844508470858C8606000400000820EA
:1038C0000620807E6180060220043804270820D06C
:1038D000202020D02708380C20060004000000001B
:1038E00008403040244024402442A44164FE254046
:1038F0002640244020402840304000400000102056
:103900008C3F61C0060000017FE2400C4FF0400890
:103910007FE600001FE000020001FFFE0000020041
:1039200042003BFE100400080904090409F80908D4
:103930000908FF80086048183804081E00000000CD
:103940000000000000000208080208080408080837
:103950000808100808E00FFF8008080008080008A1
:1039600008000808000808000808000FFFFE0FFF05
:10397000FE080800080800100800101000003000C1
:103980000000000000000000000000020000040130
:1039900080080F00101C80600081C200870200FCBC
:1039A000021FF0043C9C0820920800919000907047
:1039B0000090602091901093181C9C080C980C00AB
:1039C0008004010006010004000004000000000063
:1039D000000000C0010100010E0001F8003FFFFEE1
:1039E000212000011002020C0E0000120007E40F5B
:1039F000FE040840080878100847300841E01041EC
:103A0000E0104730307C1830E00C10000C0000044F
:103A100000000000000000000000804000C04000E6
:103A200070FC1001FE0C070204380201C002020003
:103A3000040800040E000809E010081C20080340D8
:103A4000080180080740081C3008F0100F80180893
:103A5000000C00000E000004000004000000000044
:103A6000000002000102000302000E0200044200F6
:103A700004420004420004420404420404420624B6
:103A80004FFE384FFC04520004620004620004C27E
:103A90000004C2000542000E02000C0600000600F1
:103AA0000002000000000000000100800080802073
:103AB000E0FC1803FC0C3C0000C0023FFF841FFF29
:103AC0008810003013FFC011FC20100020100018D7
:103AD0001FFF0C00000000000007FFC400000400EE
:103AE00000063FFFFE000000000000000000000094
:103AF000000010000010001010000C1000063FFC29
:103B000000000800001001006801084801081801C1
:103B10000810010FF00108100110200110203FFCD7
:103B2000001107801100E01900380D000C03003E61
:103B30000100460000003031323334353637383931
:103B400041424344454640305800303132333435E9
:103B5000363738396162636465664030780000004A
:103B6000803B000800000020100000002801000831
:103B7000903B000810000020600200004401000893
:103B800000000000000000007F000000FFFF0000B8
:04000005080000ED02
:00000001FF
