:100398000000000000000000000000000000000055
:1003A8000000000000000000000000000000000045
:0803B80000000000000000003D
:0E041D00050D34431010010508344310100182
:1003C000E4FDFCC3ED9FEC9E50070DBD00010C80C9
:1003D000F2E4FCFDC3ED9FEC9E50070DBD00010C47
:0203E00080F2A9
:0103E20022F8
:0B043900EFD394004004001F80F62267
:100292007F64120439C2A3D2A0C2A47B007A00797F
:1002A2000D7551057F301202DC7A0079081202D5F1
:1002B2007D017F211203FC7D017F221203FCE4FDFC
:1002C2007F251203FC7D147F311203FC7D077F26FC
:0302D2000203FC28
:1003E300E4FEEF3392A1EF25E0FFD2A4A2A5E4330C
:0803F3004207C2A40EBE08EA95
:0103FB0022DF
:0C042C00C2A01203E3E4FF1203E3D2A01D
:0104380022A1
:1003FC00C2A01203E3AC07AF051203E3D2A0AF0413
:01040C0022CD
:06030E008B4E8A4F89505E
:10031400C2A01203E3AD07E4FCECC395515017E40B
:10032400FF1203E3AB4EAA4FA9508C82758300EFF2
:0A0334001201120C80E3D2A0AF0505
:01033E00229C
:0702D5007B007551057F2A33
:0602DC008B4E8A4F895091
:1002E200C2A01203E3AD07E4FCECC395515018AB76
:1002F2004E0550E550AA4F7002054F14F91200F94D
:0B030200FF1203E30C80E2D2A0AF0565
:01030D0022CD
:10040D00C2A37D0F7F201203FCD2A37F8202043989
:06033F008B4A8A4B894C39
:10034500E4FB7F0712042C8F20300612C2A3AB4AB0
:10035500AA4BA94C7551147F6112030E7B01AD2088
:070365007F271203FCAF0328
:01036C00226E
:10036D008B4A8A4B894CC2A37A00790D1202D5AB08
:10037D004AAA4BA94C7551147FA01202DC7D0E7F49
:0B038D00201203FCD2A37F0A020439F7
:10013400E4F52178227C00FD7BFF7A037998FE7F29
:10014400141200D378367C007D007BFF7A0379ACEF
:100154007E007F141200D3120292D296D297E4F555
:1001640080752301752401FB7A00792212036D7FC7
:10017400707E171203C07580BF20B21475230175F9
:100184002101C2967F787E001203C0D2961203C06A
:1001940020B314752401752101C2977F787E001263
:1001A40003C0D2971203C0E521B401177B007A0083
:1001B400792212036DE4F523F524F5217FE87E030B
:1001C4001203C012040DE4F537F5387FE87E0312FC
:1001D40003C07B007A00793612033FE53745386067
:1001E40015E537B40102C296E538B40102C2977F1F
:1001F400707E171203C0E4F537F538D296D2970211
:02020400017D7A
:03000000020206F3
:0C020600787FE4F6D8FD75815102024DAE
:10000300E709F608DFFA8046E709F208DFFA803EDF
:1000130088828C83E709F0A3DFFA8032E309F608CC
:10002300DFFA8078E309F208DFFA807088828C8334
:10003300E309F0A3DFFA806489828A83E0A3F608E8
:10004300DFFA805889828A83E0A3F208DFFA804CC2
:1000530080D280FA80C680D4806980F28033801099
:1000630080A680EA809A80A880DA80E280CA803302
:1000730089828A83ECFAE493A3C8C582C8CCC5837A
:10008300CCF0A3C8C582C8CCC583CCDFE9DEE7804A
:100093000D89828A83E493A3F608DFF9ECFAA9F0C9
:1000A300EDFB2289828A83ECFAE0A3C8C582C8CC1F
:1000B300C583CCF0A3C8C582C8CCC583CCDFEADE38
:1000C300E880DB89828A83E493A3F208DFF980CC9A
:1000D30088F0EF60010E4E60C388F0ED2402B40493
:1000E3000050B9F582EB2402B4040050AF2323453A
:0600F3008223900053730C
:1000F900BB010689828A83E0225002E722BBFE0205
:09010900E32289828A83E4932237
:10011200F8BB010DE58229F582E5833AF583E8F023
:10012200225006E92582C8F622BBFE05E92582C8CF
:02013200F222B7
:10021200020134E493A3F8E493A34003F68001F2CD
:1002220008DFF48029E493A3F85407240CC8C333ED
:10023200C4540F4420C8834004F456800146F6DFBC
:10024200E4800B010204081020408090041DE47E2B
:10025200019360BCA3FF543F30E509541FFEE493B1
:10026200A360010ECF54C025E060A840B8E493A378
:10027200FAE493A3F8E493A3C8C582C8CAC583CAA3
:10028200F0A3C8C582C8CAC583CADFE9DEE780BE5B
:01042B0000D0
:00000001FF
