:1001B8000A08C0F9A4B0999282F8809004127FBF0F
:0201C800DFEF67
:100171007C007D0A12009A74082DF8E6FF1201A591
:040181007F057E0078
:10018500E4FDFCC3ED9FEC9E5015E4FBFA0BBB00B0
:0F019500010AEB646E4A70F50DBD00010C80E4A9
:0101A4002238
:1001A500E4FEC291EF339290D291EF25E0FF0EBEAF
:0201B50008F050
:0101B7002225
:1001CB00758901758C3C758AB0D2AFD2A9D28C22BD
:1000EF001201CB8512A0AE16AF171201718513A0A6
:1000FF00AE16AF177C007D0A12009A74082F1201FA
:10010F007B8514A0AE18AF191201718515A0AE181A
:10011F00AF197C007D0A12009A74082F12017B80A0
:01012F00C20D
:03000B00020130BF
:10013000C0E0758C3C758AB0051BE51B7002051A82
:100140006414451A7028F51AF51B0517E517700297
:100150000516643C45167016F516F5170519E519D0
:1001600070020518643C45187004F518F519D0E0C4
:01017000325C
:0300000002000EED
:0C000E00787FE4F6D8FD75811D020055D6
:10009A00BC000BBE0029EF8DF084FFADF022E4CC4A
:1000AA00F875F008EF2FFFEE33FEEC33FCEE9DEC13
:1000BA00984005FCEE9DFE0FD5F0E9E4CEFD22ED59
:1000CA00F8F5F0EE8420D21CFEADF075F008EF2FA3
:1000DA00FFED33FD4007985006D5F0F222C398FD94
:0500EA000FD5F0EA2231
:10001A000200EFE493A3F8E493A34003F68001F20D
:10002A0008DFF48029E493A3F85407240CC8C333E7
:10003A00C4540F4420C8834004F456800146F6DFB6
:10004A00E4800B01020408102040809001B8E47E8D
:10005A00019360BCA3FF543F30E509541FFEE493AB
:10006A00A360010ECF54C025E060A840B8E493A372
:10007A00FAE493A3F8E493A3C8C582C8CAC583CA9D
:10008A00F0A3C8C582C8CAC583CADFE9DEE780BE55
:0101CA000034
:00000001FF
