:0501B7001201BCD2A101
:0401BC00000000221D
:0A019900D2A01201B7C2A00201BCFF
:0A01A300C2A01201B7D2A00201BCF5
:08009C001201997FA01200FB84
:1000A400D2A11201BC30A00BE50AC3941950040577
:0800B4000A80F2C2A10201BCA6
:0A01AD00D2A01201BCD2A10201BCD5
:1000FB00E4FEEF25E0FFC2A11201BC92A01201B7F2
:0E010B000EBE08EEC2A11201BCD2A00201BCC1
:10007700C2A11201BCD2A01201BCE4FED2A112019E
:10008700BCEF25E0FDA2A0E4334DFFC2A11201BCE5
:040097000EBE08E8A9
:01009B002242
:10016700D3EF9400EE9400400B7D65DDFEEF1F702A
:04017700EF1E80EC0B
:01017B002261
:10013700AC0712009CAF041200FB1200A4AF05121B
:0801470000FB1200A40201A359
:0200DC00AD076E
:1000DE0012009CAF051200FB1200A41201997FA121
:0C00EE001200FB1200A41200771201A304
:0100FA0022E3
:10011900D3EF9400EE94004007EF1F70F31E80F0B8
:0D0129007F137E00EF1F70011EEF4E70F778
:0101360022A6
:0700BC001200C3ED54F0FF38
:1000C300E4FEC2B7EF30E704D2B68002C2B6D2B7BD
:0800D300EF25E0FF0EBE08EA74
:0100DB002202
:07014F007E001201197F3050
:10015600AD077FF81200BCED540FC454F0FF020047
:01016600C3D5
:10017C00AD077FFA1200BCED540FC454F0FF02001F
:01018C00C3AF
:100042007F6412014F7F0312014F7F027E00120173
:10005200197F0C1201567F037E001201197F0112D3
:1000620001567FC87E001201197F061201567F0ACF
:050072007E00020119EF
:100003001200421201ADE4F509AD09AF091201373F
:100013007F0A7E001201670509E509D3944040E990
:100023007F80120156E4F509AF091200DCEF24309A
:0F003300FF12017C0509E509D3944040EB80E101
:0300000002018D6D
:0C018D00787FE4F6D8FD75810A020003BB
:00000001FF
