:10020E0011086C6F766520796F75206D79206C6F93
:03021E0076650002
:10022200E4FEC2B4EF1392B3D2B4EFC313FF0EBE17
:0202320008F0D2
:0102340022A7
:1001F900D3EF9400EE9400400B7D13DDFEEF1F70EA
:04020900EF1E80EC78
:01020D0022CE
:0901D4007F647E001201F97F38FE
:1001DD00C2B7C2B5C2B61202227F0A7E001201F961
:0C01ED00D2B77F147E001201F9C2B722C5
:0B0188007C007D0A1200F2EF2430FF23
:10019300C2B7D2B5C2B6120222D2B77F0A7E00120C
:0B01A30001F9C2B77F147E000201F9D1
:1001AE007F2C7E011201D81201D41201D47F381295
:1001BE0001DD7F081201DD7F011201DD7F061201D4
:0601CE00DD7F0C0201DDE3
:10023500758901758C3C758AB0D2AFD2A9D28C2252
:10009A001201AE1202357F801201DDAE1BAF1C12B7
:1000AA0001887F811201DDAE1BAF1C7C007D0A1224
:1000BA0000F2ED2430FF1201937F821201DD7F3AB4
:1000CA001201937F831201DDAE19AF1A1201887FE4
:1000DA00841201DDAE19AF1A7C007D0A1200F2ED1E
:0800EA002430FF12019380AEE7
:03000B00020147A8
:10014700C0E0758C3C758AB0051EE51E7002051D62
:100157006414451D7028F51DF51E051AE51A700271
:100167000519643C45197016F519F51A051CE51CA7
:100177007002051B643C451B7004F51BF51CD0E0A1
:010187003245
:0300000002000EED
:0C000E00787FE4F6D8FD758122020055D1
:1000F200BC000BBE0029EF8DF084FFADF022E4CCF2
:10010200F875F008EF2FFFEE33FEEC33FCEE9DECBA
:10011200984005FCEE9DFE0FD5F0E9E4CEFD22ED00
:10012200F8F5F0EE8420D21CFEADF075F008EF2F4A
:10013200FFED33FD4007985006D5F0F222C398FD3B
:050142000FD5F0EA22D8
:10001A0002009AE493A3F8E493A34003F68001F262
:10002A0008DFF48029E493A3F85407240CC8C333E7
:10003A00C4540F4420C8834004F456800146F6DFB6
:10004A00E4800B010204081020408090020EE47E36
:10005A00019360BCA3FF543F30E509541FFEE493AB
:10006A00A360010ECF54C025E060A840B8E493A372
:10007A00FAE493A3F8E493A3C8C582C8CAC583CA9D
:10008A00F0A3C8C582C8CAC583CADFE9DEE780BE55
:0102210000DC
:00000001FF
