:10014100130869206C6F766520796F75206D7920B1
:050151006C6F766500F3
:10010B00D3EF9400EE94004007EF1F70F31E80F0C6
:0D011B007F137E00EF1F70011EEF4E70F786
:0101280022B4
:0700EB001200F2ED54F0FFDA
:1000F200E4FEC2B7EF30E704D2B68002C2B6D2B78E
:08010200EF25E0FF0EBE08EA44
:01010A0022D2
:070129007E0012010B7F3084
:10013000AD077FF81200EBED540FC454F0FF02003E
:01014000F2CC
:10015700AD077FFA1200EBED540FC454F0FF020015
:01016700F2A5
:10008F007F641201297F031201297F027E00120172
:10009F000B7F0C1201307F037E0012010B7F0112C8
:1000AF0001307FC87E0012010B7F061201307F0ADC
:0500BF007E0002010BB0
:1000C40012008F7F801201307F027E0012010BE448
:1000D400F51B7408251BF8E6FF120157051BE51BE9
:0700E400C3941040ED80DC25
:03000000020003F8
:0C000300787FE4F6D8FD75811B02004AEE
:10000F000200C4E493A3F8E493A34003F68001F243
:10001F0008DFF48029E493A3F85407240CC8C333F2
:10002F00C4540F4420C8834004F456800146F6DFC1
:10003F00E4800B0102040810204080900141E47E0F
:10004F00019360BCA3FF543F30E509541FFEE493B6
:10005F00A360010ECF54C025E060A840B8E493A37D
:10006F00FAE493A3F8E493A3C8C582C8CAC583CAA8
:10007F00F0A3C8C582C8CAC583CADFE9DEE780BE60
:0101560000A8
:00000001FF
