:1006C40032302020C4EA2020D4C22020C8D500CA59
:1006D400B12020B7D62020C3EB00D0C7C6DA00CEA5
:0E06E400C2B6C82020202020202020A1E60041
:10083200E4FEC280EF139281EFC313FFD2800EBE9B
:0208420008F0BC
:010844002291
:10080100C28200C28000D28200120832AF051208F3
:0908110032C28200D281D28022A1
:1006F200C28200C28000D28200120832E4FFEDC33F
:1007020013FDC280308103430580D2800FBF08EE03
:0C071200C28200C28000D280D281AF05FC
:01071E0022B8
:06065A008F24AB05AA0489
:10066000E4FD7F8E1208017C007D0AAF03AE02120A
:1006700003418F25AE02AF037C007D0A120341E5E2
:1006800025C454F02DFDAF241208017D807F8E0219
:0206900008015F
:100692007F8D1206F28F0A7F8B1206F28F0B7F89F3
:1006A2001206F28F0C7F871206F28F0D7F851206DB
:1006B200F28F0E7F831206F28F0F7F811206F28F66
:0206C200102204
:10053E00E510C4540FF511E510540FF512E50FC474
:10054E00540FF515E50F540FF516E50EC4540FF5BF
:10055E0022E50E540FF523E50DC4540FF520E50DDD
:10056E00540FF521E50CC4540FF519E50C540FF595
:10057E001AE50BC4540FF51BE50B540FF51CE50AD9
:0C058E00C4540FF51DE50A540FF51E22A1
:040747007F647E004D
:10074B00D3EF9400EE94004007EF1F70F31E80F080
:0D075B007F137E00EF1F70011EEF4E70F740
:01076800226E
:07078B00120792ED54F0FF8C
:10079200E4FEC2B7EF30E704D2B68002C2B6D2B7E7
:0807A200EF25E0FF0EBE08EA9E
:0107AA00222C
:10084500AD077FF812078BED540FC454F0FF020774
:010855009210
:07081A001202ECEF2430FF95
:10082100AD077FFA12078BED540FC454F0FF020796
:010831009234
:10059A00EF24FE600F14601114601324037016ED2B
:1005AA00247F800DED248F8008ED24878003ED24BD
:1005BA0097FF1208451202D3FFD394004013120882
:1005CA0021740129F9E43AFA7F017E0012074B806F
:0205DA00E42219
:1005DC001207477F301208457F037E0012074B7FBE
:1005EC00301208457F027E0012074B7F0C12084523
:1005FC007F037E0012074B7F011208457FC87E00E7
:0F060C0012074B7F061208457F0A7E0002074B3C
:0B085600EF1FAC0670011E4C70F62274
:10071F00D2917F087E00120856C2917F507E001240
:10072F000856D2917F147E00120856A291E433F539
:08073F00247F147E000208561D
:1007AB00E4FBC291EDC313FDD2913091034305805D
:0D07BB007F047E001208560BBB08E7AF0557
:0107C800220E
:02076900AD07DA
:10076B00E4FBC291ED1392917F057E00120856D2E5
:10077B0091EDC313FD0BBB08E97F047E0002085605
:10047F0012071F7FCC1207697F441207697F327EF4
:10048F000012085612071F7FCC1207697FBE120792
:10049F00691207ABAA071207ABEFD3940F4017EA05
:1004AF00F404FA7006EFF404FF80036307FF750886
:1004BF00007509FF8005E4F508F509EA540F751773
:1004CF0000F518EAC4540FFAEFC454F0FFEA4207DC
:0104DF0022FA
:100385007F95120845E5112430FF120821E5122456
:1003950030FF1208217F93120845E5152430FF121E
:1003A5000821E5162430FF1208217F91120845E542
:1003B500222430FF120821E5232430FF1208217F73
:1003C50086120845E5202430FF120821E521243056
:1003D500FF1208217F84120845E5192430FF120811
:1003E50021E51A2430FF1208217F82120845E51DF8
:1003F5002430FF120821E51E2430FF1208217F8DCD
:0B040500120845E51C2430FF0208210E
:100410007F9B120845AE13AF147C007D6412081A4E
:10042000AE13AF147C007D641202EC7E007F0ACF15
:10043000CDCFCECCCE12081AAE13AF147C007D64A3
:100440001202EC7E007F0ACFCDCFCECCCE1202ECD2
:10045000ED2430FF1208217F2E120821AC17AD18B1
:10046000E41202197B9A7A997919783F12010EE405
:0F047000FBFA7940784212001D12025202082155
:10061B007D1E7C007F8012065A7D107C007F82122B
:10062B00065A7D167C007F8412065A7D1F7C007F44
:10063B008612065A7D0B7C007F8812065A7D017C40
:0F064B00007F8A12065A7D0B7C007F8C02065AB4
:0B086100D288D2A8D28AD2AAD2AF223D
:1004E0001205DC12086112061B7BFF7A0679C47DB7
:1004F000027F0112059A7A0679D37D037F021205E5
:100500009A7A0679DE7D037F0312059A7A0679E3EB
:100510007D017F0412059A7F861208217F0A7E00E2
:1005200012074B7F0F12084512047F7513008F14BA
:0E05300012069212053E12038512041080EA94
:030003000207C928
:1007C900C0E0C0D075D000C006C00720B20512072E
:0C07D90047B297D007D006D0D0D0E03255
:030013000207E5FC
:1007E500C0E0C0D075D000C006C00720B305120711
:0C07F50047B296D007D006D0D0D0E0323A
:100016000202BEE86480F8E933E83360110460F058
:10002600ED33EC337009E8FCE9FDEAFEEBFF220450
:1000360060DED3EB9FEA9EE99DE8C2E78CF0C2F74B
:1000460095F0400CE8CCF8E9CDF9EACEFAEBCFFB17
:1000560012028985D0F05804700320D5B3E80470E5
:10006600075002B2D50202C892D5EC0460F7E4CC80
:10007600C0E0C398F8603B94186008400DD0E0FBE0
:100086000202A0E4FBFAC9FC8028E830E406E4C9D1
:10009600FBE4CAFCE830E305E4C9CACBFCE8540734
:1000A6006010F8C3E913F9EA13FAEB13FBEC13FC3F
:1000B600D8F130F52FC3E49CFCEF9BFFEE9AFEEDE2
:1000C60099FDD0E0FBEF4E4D4C701222DB0302028D
:1000D600C5EC2CFCEF33FFEE33FEED33FDED30E7E0
:1000E600EB0202A0EF2BFFEE3AFEED39FDD0E0FB6E
:1000F60050130BBB00030202C8ED13FDEE13FEEF17
:0801060013FFEC13FC0202A040
:10010E00EC4D6011E8497017ED33EC3304600DE4EB
:10011E00FCFFFEFD22E933E8330470F80202BE1242
:10012E00028958046009E4CC248150062850090243
:10013E0002C82840030202C5C0E0EB4A7044B980F1
:10014E0006D0E0FB0202B4EF4E701CBD8008EBFF40
:10015E00EAFEE9FD80EBE98DF0A4FEE5F00201F781
:10016E00E9CDF9EAFEEBFFEF89F0A4FCE5F0CE89CC
:10017E00F0A42EFFE435F0CD89F0A42DFEE435F089
:10018E008067EF4E7005BD80D780C3EF8BF0A4ACB7
:10019E00F0EE8BF0A42CFCE435F0F8EF8AF0A42CF2
:1001AE00E5F038FCE433CB8DF0A42CFCE5F03BF805
:1001BE00EE8AF0A42CFCE5F038F8E433CF89F0A4F5
:1001CE002CFCE5F038CF3400CE89F0A42FFFE5F0FB
:1001DE003EFEE433C98DF0A42EFEE5F039CD8AF053
:1001EE00A42FFFE5F03EFEE43DFD33D0E0FB5007CB
:1001FE000BBB000F0202C8EC2CFCEF33FFEE33FEFC
:06020E00ED33FD0202A029
:1002140075F020800E75F010800575F0087D007E65
:10022400007F003392D530D503120377EC334010AE
:10023400EF33FFEE33FEED33FDEC33FCD5F0ED226E
:0E024400E5F0247EA2D513CC92E7CDCEFF22AA
:10025200EDD2E7CD33EC3392D524814006E4FFFEA4
:10026200FDFC22FCE4CFCECDCC24E0501174FF8003
:10027200EDC3CC13CCCD13CDCE13CECF13CF0470A0
:07028200F030D5DE02037726
:10028900E9D2E7C933E833F892D5EDD2E7CD33ECBB
:0702990033FC5002B2D52234
:1002A000EC30E7100FBF000C0EBE00080DBD0004BF
:1002B0000BEB6014A2D5EB13FCED92E7FD2274FF6B
:1002C000FCFDFEFF22E480F8A2D574FF13FC7D80C4
:0302D000E480EFD8
:03000000020006F5
:0C000600787FE4F6D8FD7581250204E047
:1002D300BB010689828A83E0225002E722BBFE0229
:0902E300E32289828A83E493225C
:1002EC00BC000BBE0029EF8DF084FFADF022E4CCF6
:1002FC00F875F008EF2FFFEE33FEEC33FCEE9DECBF
:10030C00984005FCEE9DFE0FD5F0E9E4CEFD22ED04
:10031C00F8F5F0EE8420D21CFEADF075F008EF2F4E
:10032C00FFED33FD4007985006D5F0F222C398FD3F
:05033C000FD5F0EA22DC
:10034100C2D5EC30E709B2D5E4C39DFDE49CFCEED7
:1003510030E715B2D5E4C39FFFE49EFE1202ECC361
:10036100E49DFDE49CFC80031202EC30D507C3E45C
:060371009FFFE49EFE2246
:0E037700C3E49FFFE49EFEE49DFDE49CFC2297
:00000001FF
