:1000F800776F206169206E69206D79206461726C68
:10010800696E6720A3A1A3A10069206C6F766520A2
:05011800796F75200065
:10011D001200987BFF7A0079F81200037BFF7A01B9
:0B012D0079117D017F0312005080E873
:0900D1007FF812016A7F037E0032
:1000DA00D3EF9400EE94004007EF1F70F31E80F0F8
:0D00EA007F137E00EF1F70011EEF4E70F7B8
:0100F70022E6
:10013800E4FEC281EF30E704D2808002C280D2811F
:08014800EF25E0FF0EBE08EAFE
:01015000228C
:10016A00120138ED54F0FF120138ED540FC454F067
:04017A00FF02013847
:10005000AE05EF24FE600F146011146013240370CA
:1000600018EE247F800DEE248F8008EE2487800315
:10007000EE2497FD7FF812016A120151FDD394001E
:1000800040157FFA12016A740129F9E43AFA7FE80F
:080090007E031200DA80E22277
:10000300E4FCEC70077D807FF812016ABC10077D69
:10001300907FF812016ABC20077D887FF812016A7D
:10002300BC30077D987FF812016A120151FD7FFAF7
:1000330012016A740129F9E43AFA7FD07E071200AB
:0C004300DA120151700280F90CBC40B6CA
:01004F00228E
:100098007F647E001200DA7D301200D17FF81201F1
:1000A8006A7F027E001200DA7D0C1200D17D017F8A
:1000B800F812016A7FC87E001200DA7D067FF81206
:0900C800016A7F0A7E000200DAE1
:0300000002017E7C
:0C017E00787FE4F6D8FD75810702011DB2
:10015100BB010689828A83E0225002E722BBFE02AC
:09016100E32289828A83E49322DF
:00000001FF
