:100137000A08C0F9A4B0999282F8809004121F2F80
:020147004F8FD8
:0800030012014A12009A80FB71
:10014A00758901758C3C758AB0D2AFD2A9D28C223E
:10011700E4FDFCC3ED9FEC9E5015E4FBFA0BBB001E
:0F012700010AEB646E4A70F50DBD00010C80E417
:0101360022A6
:10009A008512A0E51775F00A842408F8E6F5807F32
:1000AA00057E001201178513A0E51775F00A8474FE
:1000BA000825F0F8E6F5801201178514A0E51675F3
:1000CA00F00A842408F8E6F5801201178515A0E5E0
:1000DA001675F00A84740825F0F8E6F5800201170F
:03000B000200EA06
:1000EA00C0E0C0D0758C3C758AB00518E518B41408
:1000FA00177518000516E516B43C0D751600051798
:0D010A00E517B43C03751700D0D0D0E032EB
:0300000002000EED
:0C000E00787FE4F6D8FD758118020055DB
:10001A00020003E493A3F8E493A34003F68001F2F9
:10002A0008DFF48029E493A3F85407240CC8C333E7
:10003A00C4540F4420C8834004F456800146F6DFB6
:10004A00E4800B0102040810204080900137E47E0E
:10005A00019360BCA3FF543F30E509541FFEE493AB
:10006A00A360010ECF54C025E060A840B8E493A372
:10007A00FAE493A3F8E493A3C8C582C8CAC583CA9D
:10008A00F0A3C8C582C8CAC583CADFE9DEE780BE55
:0101490000B5
:00000001FF
