:1002C0000A08C0F9A4B0999282F880900A1F407978
:0E02D000243019120278001004127FBFDFEFF5
:1002F800E4FEC290EF139291EFC313FFD2900EBEAB
:0203080008F0FB
:01030A0022D0
:1002DF00C29200C29000D292001202F8AF05120231
:0902EF00F8C29200D291D29022D3
:10027300C29200C29000D292001202F8E4FFEDC3D2
:1002830013FDC290309103430580D2900FBF08EE57
:0C029300C29200C29000D290D291AF0540
:01029F00223C
:060209008F35AB05AA04CD
:10020F00E4FD7F8E1202DF7C007D0AAF03AE021287
:10021F00008F8F36AE02AF037C007D0A12008FE590
:10022F0036C454F02DFDAF351202DF7D807F8E0274
:02023F0002DFDC
:100241007F8D1202738F167F8B1202738F177F8936
:100251001202738F187F871202738F197F85120222
:10026100738F1A7F831202738F1B7F811202738F28
:020271001C224D
:10011A00E51CC4540FF51DE51C540FF51EE51BC460
:10012A00540FF529E51B540FF52AE51AC4540FF5A7
:10013A0033E51A540FF534E519C4540FF531E519AE
:10014A00540FF532E518C4540FF52BE518540FF582
:10015A002CE517C4540FF52DE517540FF52EE516A7
:0C016A00C4540FF52FE516540FF5302299
:1002A000E4FDFCC3ED9FEC9E5015E4FBFA0BBB0094
:0F02B000010AEB646E4A70F50DBD00010C80E48D
:0102BF00221C
:1001C0008512A074082533F8E6F5807F057E0012BD
:1001D00002A08513A0E51E20E00474088002741FAD
:1001E0002534F8E6F5807F057E001202A08514A074
:1001F00074082529F8E6F5801202A08515A0740878
:09020000252AF8E6F5800202A0AF
:100176007D1E7C007F801202097D087C007F821232
:1001860002097D0D7C007F841202097D097C007FB7
:10019600861202097D0B7C007F881202097D037C92
:1001A600007F8A1202097D0B7C007F8C12020912E5
:0A01B600024112011A1201C080F587
:03000000020003F8
:0C000300787FE4F6D8FD75813602004AD3
:10008F00C2D5EC30E709B2D5E4C39DFDE49CFCEE8C
:10009F0030E715B2D5E4C39FFFE49EFE1200C5C33F
:1000AF00E49DFDE49CFC80031200C530D507C3E43A
:0600BF009FFFE49EFE22FB
:10000F00020176E493A3F8E493A34003F68001F290
:10001F0008DFF48029E493A3F85407240CC8C333F2
:10002F00C4540F4420C8834004F456800146F6DFC1
:10003F00E4800B01020408102040809002C0E47E8F
:10004F00019360BCA3FF543F30E509541FFEE493B6
:10005F00A360010ECF54C025E060A840B8E493A37D
:10006F00FAE493A3F8E493A3C8C582C8CAC583CAA8
:10007F00F0A3C8C582C8CAC583CADFE9DEE780BE60
:0102DE00001F
:1000C500BC000BBE0029EF8DF084FFADF022E4CC1F
:1000D500F875F008EF2FFFEE33FEEC33FCEE9DECE8
:1000E500984005FCEE9DFE0FD5F0E9E4CEFD22ED2E
:1000F500F8F5F0EE8420D21CFEADF075F008EF2F78
:10010500FFED33FD4007985006D5F0F222C398FD68
:050115000FD5F0EA2205
:00000001FF
