:1001B700BFCDBBA7C2EB3820CEBB00D4ADC2EB206E
:1001C700203820CEBB00B7B4C2EB20203820CEBBEE
:0101D7000027
:10021800D3EF9400EE94004007EF1F70F31E80F0B8
:0D0228007F137E00EF1F70011EEF4E70F778
:0102350022A6
:0701D8001201DFED54F0FFFE
:1001DF00E4FEC2B7EF30E704D2B68002C2B6D2B7A0
:0801EF00EF25E0FF0EBE08EA57
:0101F70022E5
:10024F00AD077FF81201D8ED540FC454F0FF02012F
:01025F00DFBF
:10026000AD077FFA1201D8ED540FC454F0FF02011C
:01027000DFAE
:1000BB00EF24FE600F14601114601324037016ED0F
:1000CB00247F800DED248F8008ED24878003ED24A1
:1000DB0097FF12024F120236FFD39400400C12020C
:0B00EB0060740129F9E43AFA80EB226E
:0F027100758902E4F58CF58AD2A9D2AFD28C221E
:1001F8007F0A7E001202187F3012024F7F0C120213
:100208004F7F0112024F7F0212024F7F0802024FF6
:100163007E01E4FDE4FCEFC313FF74182EF8E6D31D
:10017300940640034307800E0CBC08EA74392DF83B
:09018300A6070DBD04DE7508019C
:01018C002250
:07028C00D288D2A8D2AF22F4
:10018D00AC05AB07ECD39409500A12024FEC2430A6
:10019D00FF120260ECD39409400CAF0312024FEC36
:0A01AD002437FF120260E4FEFF2277
:10012E00E539C4540FF50BE539540FF50CE53AC417
:10013E00540FF50DE53A540FF50EE53BC4540FF58B
:10014E000FE53B540FF510E53CC4540FF511E53C9B
:05015E00540FF5122210
:1000F600AD0B7F8612018DAD0C7F8712018DAD0D84
:100106007F9612018DAD0E7F9712018DAD0F7F8EFA
:1001160012018DAD107F8F12018DAD117F9E1201E0
:080126008DAD127F9F02018DD7
:10000E0012027112028C1201F87F027E0012021887
:10001E007BFF7A0179B78B158A1689177D017F01CF
:10002E001200BB7A0179B78B158A1689177D017F6D
:10003E00021200BB7A0179C28B158A1689177D01CF
:10004E007F031200BB7A0179CD8B158A1689177D35
:10005E00017F041200BBE514B40106120163E4F53E
:10006E0014E508600612012EE4F5081200F680E68B
:03000B00020006EA
:03000600050932B7
:0300030002007E7A
:10007E00C0E0C0D075D000C000E5136023E509D301
:10008E0094204003750A007418250AF8A60975090C
:10009E0000050AE50AB4210E750A007514018006E2
:0D00AE00751301750900D000D0D0D0E032EC
:0300000002028079
:0C028000787FE4F6D8FD75813C02000E8A
:10023600BB010689828A83E0225002E722BBFE02C6
:09024600E32289828A83E49322F9
:00000001FF
