:10004E0049206C6F766520796F752100446F207999
:10005E006F75206C6F7665206D652100596F752860
:10006E005E5F5E29596F752100323031312E332E8D
:0B007E00323554657874204F4B210090
:10013900E4FDFCC3ED9FEC9E5008000DBD00010CD1
:0201490080F143
:01014B002291
:10010F00EF1FAA0670011E4A600BE4FDEDC3947841
:05011F0050EE0D80F719
:0101240022B8
:1000B7007F057E0012010FE4FD7F2812015DE4FD3C
:1000C7007F0C12015DE4FD7F0612015DE4FD7F01F7
:0300D70002015DC6
:10014C00C2937F027E00120139D293120139C293FD
:01015C002280
:1000DA00AB0753900FEB54F0429012014CEBC4540F
:0C00EA00F0FB53900F54F0429002014CC8
:0D015D00ED7004C2928002D2921200DA22EC
:10012500ED7006EF2480FA8004EF24C0FAAF02E4F4
:04013500FD02015D69
:060089007BFF7D01E4FF96
:10008F008B088A09890A120125AB08AA09A90A1245
:10009F0000F6FF60127D0112015D7401250AF50A59
:0800AF00E43509F50980E222A5
:10000300D292D2931200B7E4FD7F0112015D7F0A01
:100013007E0012010F7BFF7A00794EE4FDFF120090
:100023008F7A00795A1200897F107E2712010F7B85
:10003300FF7A00796AE4FDFF12008F7A0079771264
:0B00430000897F107E2712010F80BC97
:0300000002016A90
:0C016A00787FE4F6D8FD75810A020003DE
:1000F600BB010689828A83E0225002E722BBFE0208
:09010600E32289828A83E493223A
:00000001FF
