:10029700A1E343000D0A0063757272656E742074E2
:1002A700656D7065726174757265206973203A2097
:1002B70020000001010203030404050606060708DF
:0302C7000809091A
:10033300D3EF9400EE940040147D7C7C00ED1D709F
:0D034300011CED4C70F7EF1F70E61E80E30B
:01035000228A
:10024E00E4759850F58775C830F5C9750CE2750BD5
:10025E0004F50AF509AF0CAE0BAD0AAC097B20FA1A
:10026E00F9F81200D08F0C8E0B8D0A8C09E4AC06B7
:10027E00AD07C39DFDE49CF5CBAF05EFF5CAC29863
:08028E00D29CD2ACD2CAD2AF5F
:010296002245
:06036F0014F9120026FF44
:080375008F993099FDC2992215
:0300230002039441
:08039400309805C29885990814
:01039C00322E
:100003008B108A118912AB10AA11A9121200266053
:0F0013000D0512E5127002051112036F80E8222D
:0A0162008B098A0A890BAB05AA0479
:10016C00E5159002B9932430F510750F2E7C007DA7
:10017C000AAF03AE0212003FED2430F50E7C007D79
:10018C000AAF03AE0212003F7C007D0A12003FED65
:10019C002430F50DAE02AF037C007D6412003F7C71
:1001AC00007D0A12003FED2430F50CAB09AA0AA918
:1001BC000B120026600D050BE50B7002050A1203ED
:1001CC006F80E87F20120375E4FE740C2EF8E6FFB6
:1001DC001203750EBE05F37BFF7A027997120003AA
:0901EC007BFF7A02799B020003FB
:0B038900EF1FAC0670011E4C70F62246
:1002CA00D2877F087E00120389C2877F507E001280
:1002DA000389D2877F147E00120389A287E433F54B
:0802EA00097F147E0002038964
:10035100E4FBC287EDC313FDD287308703430580D9
:0D0361007F047E001203890BBB08E7AF0587
:01036E00226C
:0202F200AD0756
:1002F400E4FBC287ED1392877F057E00120389D247
:1003040087EDC313FD0BBB08E97F047E000203895C
:1001F5001202CA7FCC1202F27F441202F27F327ED3
:10020500001203891202CA7FCC1202F27FBE1202CB
:10021500F2120351AA07120351EFD3940F4014EAC7
:10022500F404FA7006EFF404FF80036307FF751307
:10023500FF8003E4F513EA540FF515EAC4540FFAE9
:08024500EFC454F0FFEA420788
:01024D00228E
:1003140012024E1201F58F147FE87E031203337B21
:0F032400FF7A02799EE514FD7C0012016280E4ED
:0300000002037D7B
:0C037D00787FE4F6D8FD758115020314AA
:10002600BB010689828A83E0225002E722BBFE02D8
:09003600E32289828A83E493220B
:10003F00BC000BBE0029EF8DF084FFADF022E4CCA5
:10004F00F875F008EF2FFFEE33FEEC33FCEE9DEC6E
:10005F00984005FCEE9DFE0FD5F0E9E4CEFD22EDB4
:10006F00F8F5F0EE8420D21CFEADF075F008EF2FFE
:10007F00FFED33FD4007985006D5F0F222C398FDEF
:05008F000FD5F0EA228C
:1000940075F008758200EF2FFFEE33FECD33CDCC23
:1000A40033CCC58233C5829BED9AEC99E5829840A6
:1000B4000CF582EE9BFEED9AFDEC99FC0FD5F0D683
:1000C400E4CEFBE4CDFAE4CCF9A88222B800C1B9AD
:1000D4000059BA002DEC8BF084CFCECDFCE5F0CBEB
:1000E400F97818EF2FFFEE33FEED33FDEC33FCEB24
:1000F40033FB10D703994004EB99FB0FD8E5E4F9DF
:10010400FA227818EF2FFFEE33FEED33FDEC33FCCB
:10011400C933C910D7059BE99A4007EC9BFCE99ABF
:10012400F90FD8E0E4C9FAE4CCFB2275F010EF2F04
:10013400FFEE33FEED33FDCC33CCC833C810D70704
:100144009BEC9AE899400AED9BFDEC9AFCE899F83F
:0E0154000FD5F0DAE4CDFBE4CCFAE4C8F922D2
:00000001FF
