:0D046B00EFD3940040031F80F77F13DFFEE6
:010478002261
:0704070012040EED54F0FF9A
:10040E00E4FEC281EF30E704D2808002C280D28146
:08041E00EF25E0FF0EBE08EA25
:0104260022B3
:10045A00AD077FF8120407ED540FC454F0FF0204ED
:01046A000E83
:04044500842430FFDC
:10044900AD077FFA120407ED540FC454F0FF0204FC
:010459000E94
:100386007F6412046B7F3012045A7F0312046B7F62
:100396003012045A7F0212046B7F0C12045A7F0338
:1003A60012046B7F0112045A7FC812046B7F061277
:0703B600045A7F0A02046BE8
:0B048500EF1FAC0670011E4C70F62249
:1003BD00D2877F087E00120485C2877F507E00128F
:1003CD000485D2877F147E00120485A287E433F55D
:0803DD000B7F147E0002048571
:10042700E4FBC287EDC313FDD28730870343058002
:0D0437007F047E001204850BBB08E7AF05B3
:010444002295
:0203E500AD0762
:1003E700E4FBC287ED1392877F057E00120485D256
:1003F70087EDC313FD0BBB08E97F047E000204856C
:10032D001203BD7FCC1203E57F441203E57F327EBD
:10033D00001204851203BD7FCC1203E57FBE1203AC
:10034D00E5120427AA07120427EFD3940F4014EAED
:10035D00F404FA7006EFF404FF80036307FF7508D9
:10036D00FF8003E4F508EA540FF50AEAC4540FFAC6
:08037D00EFC454F0FFEA42074F
:010385002255
:1002CE0012038612032D8F097F9812045AE50975C1
:1002DE00F064120445E50975F06484E5F075F00AE2
:1002EE00120445E50975F06484E5F075F00A84E5BD
:1002FE00F02430FF1204497F2E120449AC0AE41296
:10030E00020B7B9A7A997919783F1200FBE4FBFA7B
:0F031E007940784212000A12023F12044980A46B
:100003000202ABE86480F8E933E83360110460F07E
:10001300ED33EC337009E8FCE9FDEAFEEBFF220463
:1000230060DED3EB9FEA9EE99DE8C2E78CF0C2F75E
:1000330095F0400CE8CCF8E9CDF9EACEFAEBCFFB2A
:1000430012027685D0F05804700320D5B3E804700B
:10005300075002B2D50202B592D5EC0460F7E4CCA6
:10006300C0E0C398F8603B94186008400DD0E0FBF3
:1000730002028DE4FBFAC9FC8028E830E406E4C9F7
:10008300FBE4CAFCE830E305E4C9CACBFCE8540747
:100093006010F8C3E913F9EA13FAEB13FBEC13FC52
:1000A300D8F130F52FC3E49CFCEF9BFFEE9AFEEDF5
:1000B30099FDD0E0FBEF4E4D4C701222DB030202A0
:1000C300B2EC2CFCEF33FFEE33FEED33FDED30E706
:1000D300EB02028DEF2BFFEE3AFEED39FDD0E0FB94
:1000E30050130BBB00030202B5ED13FDEE13FEEF3D
:0800F30013FFEC13FC02028D67
:1000FB00EC4D6011E8497017ED33EC3304600DE4FF
:10010B00FCFFFEFD22E933E8330470F80202AB1268
:10011B00027658046009E4CC248150062850090269
:10012B0002B52840030202B2C0E0EB4A7044B9802A
:10013B0006D0E0FB0202A1EF4E701CBD8008EBFF66
:10014B00EAFEE9FD80EBE98DF0A4FEE5F00201E4A7
:10015B00E9CDF9EAFEEBFFEF89F0A4FCE5F0CE89DF
:10016B00F0A42EFFE435F0CD89F0A42DFEE435F09C
:10017B008067EF4E7005BD80D780C3EF8BF0A4ACCA
:10018B00F0EE8BF0A42CFCE435F0F8EF8AF0A42C05
:10019B00E5F038FCE433CB8DF0A42CFCE5F03BF818
:1001AB00EE8AF0A42CFCE5F038F8E433CF89F0A408
:1001BB002CFCE5F038CF3400CE89F0A42FFFE5F00E
:1001CB003EFEE433C98DF0A42EFEE5F039CD8AF066
:1001DB00A42FFFE5F03EFEE43DFD33D0E0FB5007DE
:1001EB000BBB000F0202B5EC2CFCEF33FFEE33FE22
:0601FB00ED33FD02028D50
:1002010075F020800E75F010800575F0087D007E78
:10021100007F003392D530D5031202C0EC33401079
:10022100EF33FFEE33FEED33FDEC33FCD5F0ED2281
:0E023100E5F0247EA2D513CC92E7CDCEFF22BD
:10023F00EDD2E7CD33EC3392D524814006E4FFFEB7
:10024F00FDFC22FCE4CFCECDCC24E0501174FF8016
:10025F00EDC3CC13CCCD13CDCE13CECF13CF0470B3
:07026F00F030D5DE0202C0F1
:10027600E9D2E7C933E833F892D5EDD2E7CD33ECCE
:0702860033FC5002B2D52247
:10028D00EC30E7100FBF000C0EBE00080DBD0004D2
:10029D000BEB6014A2D5EB13FCED92E7FD2274FF7E
:1002AD00FCFDFEFF22E480F8A2D574FF13FC7D80D7
:0302BD00E480EFEB
:030000000204797E
:0C047900787FE4F6D8FD75810B0202CEFE
:0E02C000C3E49FFFE49EFEE49DFDE49CFC224F
:00000001FF
