:10059700000101020303040405060606070808090B
:0105A700094A
:10052B000A22C0F9A4B0999282F880900A404079CF
:10053B002430191202780010012F01013101013E04
:01054B0001AE
:10058400E4FEC290EF139291EFC313FFD2900EBE1C
:0205940008F06D
:010596002242
:10056B00C29200C29000D29200120584AF05120510
:09057B0084C29200D291D29022B8
:10049100C29200C29000D29200120584E4FFEDC323
:1004A10013FDC290309103430580D2900FBF08EE37
:0C04B100C29200C29000D290D291AF0520
:0104BD00221C
:0603C8008F08AB05AA043A
:1003CE00E4FD7F8E12056B7C007D0AAF03AE021238
:1003DE0001BC8F09AE02AF037C007D0A1201BCE5A1
:1003EE0009C454F02DFDAF0812056B7D807F8E027F
:0203FE00056B8D
:100400007F8D1204918F327F8B1204918F337F89FD
:100410001204918F347F871204918F357F851204E7
:10042000918F367F831204918F377F811204918FD1
:02043000382270
:1002CB00E538C4540FF539E538540FF53AE537C422
:1002DB00540FF54AE537540FF54BE536C4540FF57B
:1002EB0056E536540FF557E535C4540FF554E5353F
:1002FB00540FF555E534C4540FF54EE534540FF552
:10030B004FE533C4540FF550E533540FF551E53237
:0C031B00C4540FF552E532540FF5532284
:0E04630012016774222FF8E6F5807F027E00FA
:10047100E4FDFCC3ED9FEC9E5015E4FBFA0BBB00C1
:0F048100010AEB646E4A70F50DBD00010C80E4BA
:010490002249
:10037D0053A00F43A0E07422255612046953A00F19
:10038D0043A0D0E53A20E004742280027440255742
:10039D00F8E6F58012046D53A00F43A0B07422252A
:1003AD004AF8E6F5807F0412047153A00F43A07044
:0B03BD007422254BF8E6F58002047165
:1004E600E539701CE53AC394065015E53AC3940005
:1004F600400EE54A700AE54B7006200403C2A022AE
:03050600D2A0225E
:1003270053A00F43A0E0E53F75F00A84242212048E
:100337006953A00F43A0D0E53F75F00A84742225C6
:10034700F0F8E6F58012047153A00F43A0B0E52C36
:1003570075F00A842422F8E6F5807F0412047153AD
:10036700A00F43A070E52C75F00A84744025F0F8BF
:06037700E6F580020471AE
:0B05A800EF1FAC0670011E4C70F62225
:1004BE00D2937F087E001205A8C2937F507E001251
:1004CE0005A8D2937F147E001205A8A293E433F5FB
:0804DE00087F147E000205A84E
:10054D00E4FBC293EDC313FDD293309303430580B7
:0D055D007F047E001205A80BBB08E7AF0568
:01056A00226E
:02050900AD073C
:10050B00E4FBC293ED1392937F057E001205A8D2F4
:10051B0093EDC313FD0BBB08E97F047E000205A816
:10026A001204BE7FCC1205097F441205097F327E33
:10027A00001205A81204BE7FCC1205097FBE120522
:10028A000912054DAA0712054DEFD3940F4017EA3C
:10029A00F404FA7006EFF404FF80036307FF752D78
:1002AA0000752EFF8005E4F52DF52EEA540F754CE6
:1002BA0000F54DEAC4540FFAEFC454F0FFEA4207BE
:0102CA002211
:1001F20053A00F43A0E0AE3CAF3D7C007D641204EF
:100202006353A00F43A0D0AE3CAF3D7C007D64128F
:1002120001677E007F0ACFCDCFCECCCE12046353CE
:10022200A00F43A0B0AE3CAF3D7C007D64120167DD
:100232007E007F0ACFCDCFCECCCE12016774402D87
:10024200F8E6F5807F047E0012047153A00F43A0EC
:10025200707497254DF5827405354CF583E493242B
:0802620022F8E6F580020471A8
:1000030020B21C2000197F0A7E0012047120B20F57
:1000130020000C0530E530B40303E4F530D20030A2
:10002300B202C20020B32B2001287F0A7E001204F3
:100033007120B31E20011BE530B40216053FE53FD6
:10004300B41803E4F53FE53FFD7C007F841203C849
:10005300D20130B302C20120B4582002557F0A7E78
:100063000012047120B44B200248E5306402704250
:10007300052CE52CB43C03E4F52CE52CFD7C007F3A
:10008300821203C8E4FDFC7F801203C87D017C005B
:100093007F861203C87D0B7C007F881203C87D0115
:1000A3007C007F8A1203C87D0B7C007F8C1203C8FF
:1000B300D20230B402C20220B5182003157F0A7E93
:1000C3000012047120B50B200308B204A204929419
:0700D300D20330B502C203A5
:0100DA002203
:10043200D294D2041202CB12040012026A753C005A
:100442008F3D1200031204E6E530700312037DE5CE
:1004520030B401031201F2E530B402D8120327804E
:01046200D3C6
:030000000200DB20
:0C00DB00787FE4F6D8FD75815702012201
:10016700BC000BBE0029EF8DF084FFADF022E4CC7C
:10017700F875F008EF2FFFEE33FEEC33FCEE9DEC45
:10018700984005FCEE9DFE0FD5F0E9E4CEFD22ED8B
:10019700F8F5F0EE8420D21CFEADF075F008EF2FD5
:1001A700FFED33FD4007985006D5F0F222C398FDC6
:0501B7000FD5F0EA2263
:1001BC00C2D5EC30E709B2D5E4C39DFDE49CFCEE5E
:1001CC0030E715B2D5E4C39FFFE49EFE120167C36E
:1001DC00E49DFDE49CFC800312016730D507C3E469
:0601EC009FFFE49EFE22CD
:1000E700020432E493A3F8E493A34003F68001F2F9
:1000F70008DFF48029E493A3F85407240CC8C3331A
:10010700C4540F4420C8834004F456800146F6DFE8
:10011700E4800B010204081020408090052BE47E48
:10012700019360BCA3FF543F30E509541FFEE493DD
:10013700A360010ECF54C025E060A840B8E493A3A4
:10014700FAE493A3F8E493A3C8C582C8CAC583CACF
:10015700F0A3C8C582C8CAC583CADFE9DEE780BE87
:01054C0000AE
:00000001FF
