:1001460049206C6F766520796F75003030CAB13002
:1001560030B7D63030C3EB004D59206461726C69FC
:050166006E67A3A1007B
:04018D007F0A7E0067
:10019100D3EF9400EE9400400B7D13DDFEEF1F7052
:0401A100EF1E80ECE1
:0101A5002237
:07016B007E001201917F30BC
:10017200AC07C2B5C2B67F017E001201918C90D24B
:0B018200B77F147E00120191C2B7226B
:1001BF00D2B5C2B68F90D2B712018DC2B77F027E71
:0401CF000002019198
:1000EC007F0312016B7F0412016B7F017E001201F2
:1000FC00917F0F1201727F017E001201917F01121C
:10010C0001727FF07E001201917F061201727F0A4C
:05011C007E00020191CC
:1000A4008D0FEF24FE601014601314601624037087
:1000B4001AE50F247F8010E50F248F800AE50F24B2
:1000C400878004E50F2497FF1201721201A6FFD363
:1000D400940040131201BF740129F9E43AFA7FE84D
:0800E4007E0312019180E42269
:10012100EB75F00A84FAEB75F00A84ABF0EF2DFF62
:10013100120172EA2430FF1201BFEB2430FF1201D9
:04014100BFE4FEFF1A
:010145002297
:1001D300758901758C3C758AB0D2AFD2A9D28C22B5
:10000E001201D31200EC7F0C1201727F8212017268
:10001E007F101201BF12018D7BFF7A0179468B0C86
:10002E008A0D890E7D027F011200A412018D7A01C4
:10003E0079518B0C8A0D890E7D027F021200A4125B
:10004E00018D7A01795E8B0C8A0D890E7D027F03FC
:10005E001200A4E50AB414FBE4F50A0508E50864E9
:10006E003C7028F5080509E509B43C16E4F50905C8
:10007E000BE50BB41803E4F50BAB0B7D017F90126F
:10008E000121AB097D037F90120121AB087D057F15
:06009E009012012180BD5B
:03000B000201EF00
:0901EF00758C3C758AB0050A32DA
:030000000201E317
:0C01E300787FE4F6D8FD75810F02000E55
:1001A600BB010689828A83E0225002E722BBFE0257
:0901B600E32289828A83E493228A
:00000001FF
