:10007D00D3EF9400EE9400400B7D13DDFEEF1F7067
:04008D00EF1E80ECF6
:01009100224C
:090029007F647E0012007D7F3827
:10003200C2B7C2B5C2B68F907F0A7E0012007DD2CF
:0B004200B77F147E0012007DC2B722C1
:10004D00C2B7D2B5C2B68F90D2B77F0A7E0012006A
:0A005D007DC2B77F147E0002007D13
:100003007F2C7E0112002D1200291200297F381245
:1000130000327F081200327F011200327F06120085
:06002300327F0C020032E6
:100067001200037F801200327F047E0012007D7F22
:060077003212004D80ED85
:0300000002009269
:0C009200787FE4F6D8FD75810702006756
:00000001FF
